{"abi":[{"type":"constructor","inputs":[{"name":"_store","type":"address","internalType":"address"}],"stateMutability":"nonpayable"},{"type":"function","name":"STORE_ADDRESS","inputs":[],"outputs":[{"name":"","type":"address","internalType":"address"}],"stateMutability":"view"},{"type":"function","name":"getBoughtItems","inputs":[{"name":"_user","type":"address","internalType":"address"}],"outputs":[{"name":"","type":"uint8[]","internalType":"uint8[]"}],"stateMutability":"view"},{"type":"function","name":"purchaseItem","inputs":[{"name":"_itemId","type":"uint8","internalType":"uint8"}],"outputs":[],"stateMutability":"payable"}],"bytecode":{"object":"0x60a060405234801561000f575f80fd5b5060405161077f38038061077f833981810160405281019061003191906100c9565b8073ffffffffffffffffffffffffffffffffffffffff1660808173ffffffffffffffffffffffffffffffffffffffff1681525050506100f4565b5f80fd5b5f73ffffffffffffffffffffffffffffffffffffffff82169050919050565b5f6100988261006f565b9050919050565b6100a88161008e565b81146100b2575f80fd5b50565b5f815190506100c38161009f565b92915050565b5f602082840312156100de576100dd61006b565b5b5f6100eb848285016100b5565b91505092915050565b60805161066e6101115f395f818160bb015260e8015261066e5ff3fe608060405260043610610033575f3560e01c806355155b1e14610037578063af3bcb7d14610061578063f5b2d01c1461007d575b5f80fd5b348015610042575f80fd5b5061004b6100b9565b60405161005891906103a8565b60405180910390f35b61007b600480360381019061007691906103fb565b6100dd565b005b348015610088575f80fd5b506100a3600480360381019061009e9190610450565b61022f565b6040516100b09190610532565b60405180910390f35b7f000000000000000000000000000000000000000000000000000000000000000081565b5f637735940090505f7f000000000000000000000000000000000000000000000000000000000000000073ffffffffffffffffffffffffffffffffffffffff168260405161012a9061057f565b5f6040518083038185875af1925050503d805f8114610164576040519150601f19603f3d011682016040523d82523d5f602084013e610169565b606091505b50509050806101ad576040517f08c379a00000000000000000000000000000000000000000000000000000000081526004016101a4906105ed565b60405180910390fd5b5f803373ffffffffffffffffffffffffffffffffffffffff1673ffffffffffffffffffffffffffffffffffffffff1681526020019081526020015f2083908060018154018082558091505060019003905f5260205f2090602091828204019190069091909190916101000a81548160ff021916908360ff160217905550505050565b60605f73ffffffffffffffffffffffffffffffffffffffff168273ffffffffffffffffffffffffffffffffffffffff16036102b4575f67ffffffffffffffff81111561027e5761027d61060b565b5b6040519080825280602002602001820160405280156102ac5781602001602082028036833780820191505090505b509050610364565b5f808373ffffffffffffffffffffffffffffffffffffffff1673ffffffffffffffffffffffffffffffffffffffff1681526020019081526020015f2080548060200260200160405190810160405280929190818152602001828054801561035c57602002820191905f5260205f20905f905b82829054906101000a900460ff1660ff16815260200190600101906020825f010492830192600103820291508084116103265790505b505050505090505b919050565b5f73ffffffffffffffffffffffffffffffffffffffff82169050919050565b5f61039282610369565b9050919050565b6103a281610388565b82525050565b5f6020820190506103bb5f830184610399565b92915050565b5f80fd5b5f60ff82169050919050565b6103da816103c5565b81146103e4575f80fd5b50565b5f813590506103f5816103d1565b92915050565b5f602082840312156104105761040f6103c1565b5b5f61041d848285016103e7565b91505092915050565b61042f81610388565b8114610439575f80fd5b50565b5f8135905061044a81610426565b92915050565b5f60208284031215610465576104646103c1565b5b5f6104728482850161043c565b91505092915050565b5f81519050919050565b5f82825260208201905092915050565b5f819050602082019050919050565b6104ad816103c5565b82525050565b5f6104be83836104a4565b60208301905092915050565b5f602082019050919050565b5f6104e08261047b565b6104ea8185610485565b93506104f583610495565b805f5b8381101561052557815161050c88826104b3565b9750610517836104ca565b9250506001810190506104f8565b5085935050505092915050565b5f6020820190508181035f83015261054a81846104d6565b905092915050565b5f81905092915050565b50565b5f61056a5f83610552565b91506105758261055c565b5f82019050919050565b5f6105898261055f565b9150819050919050565b5f82825260208201905092915050565b7f5472616e73666572206661696c656400000000000000000000000000000000005f82015250565b5f6105d7600f83610593565b91506105e2826105a3565b602082019050919050565b5f6020820190508181035f830152610604816105cb565b9050919050565b7f4e487b71000000000000000000000000000000000000000000000000000000005f52604160045260245ffdfea26469706673582212208804d3120ac875ad3cb85135808e1aa562f200faf6bc72213890d54ac56fb3cb64736f6c63430008180033","linkReferences":{}},"methodIdentifiers":{"STORE_ADDRESS()":"55155b1e","getBoughtItems(address)":"f5b2d01c","purchaseItem(uint8)":"af3bcb7d"},"id":19}