{"abi":[{"type":"constructor","inputs":[{"name":"_store","type":"address","internalType":"address"},{"name":"_aggregatorAddress","type":"address","internalType":"address"},{"name":"itemsIds","type":"uint256[]","internalType":"uint256[]"},{"name":"itemsPrices","type":"uint256[]","internalType":"uint256[]"},{"name":"itemsJsonUrl","type":"string","internalType":"string"}],"stateMutability":"nonpayable"},{"type":"function","name":"STORE_ADDRESS","inputs":[],"outputs":[{"name":"","type":"address","internalType":"address"}],"stateMutability":"view"},{"type":"function","name":"balanceOf","inputs":[{"name":"","type":"address","internalType":"address"}],"outputs":[{"name":"","type":"uint256","internalType":"uint256"}],"stateMutability":"pure"},{"type":"function","name":"decimals","inputs":[],"outputs":[{"name":"","type":"uint8","internalType":"uint8"}],"stateMutability":"pure"},{"type":"function","name":"getBoughtItems","inputs":[{"name":"_user","type":"address","internalType":"address"}],"outputs":[{"name":"","type":"uint256[]","internalType":"uint256[]"}],"stateMutability":"view"},{"type":"function","name":"purchaseItem","inputs":[{"name":"_itemId","type":"uint256","internalType":"uint256"}],"outputs":[],"stateMutability":"payable"},{"type":"function","name":"supportsInterface","inputs":[{"name":"","type":"bytes4","internalType":"bytes4"}],"outputs":[{"name":"","type":"bool","internalType":"bool"}],"stateMutability":"pure"},{"type":"function","name":"symbol","inputs":[],"outputs":[{"name":"","type":"string","internalType":"string"}],"stateMutability":"pure"}],"bytecode":{"object":"0x60a060405234801562000010575f80fd5b50604051620054f7380380620054f78339818101604052810190620000369190620005e3565b8473ffffffffffffffffffffffffffffffffffffffff1660808173ffffffffffffffffffffffffffffffffffffffff1681525050835f806101000a81548173ffffffffffffffffffffffffffffffffffffffff021916908373ffffffffffffffffffffffffffffffffffffffff1602179055505f835111620000ef576040517f08c379a0000000000000000000000000000000000000000000000000000000008152600401620000e69062000722565b60405180910390fd5b815183511462000136576040517f08c379a00000000000000000000000000000000000000000000000000000000081526004016200012d9062000722565b60405180910390fd5b5f8151116200017c576040517f08c379a0000000000000000000000000000000000000000000000000000000008152600401620001739062000722565b60405180910390fd5b80306040516200018c90620002e0565b620001999291906200079d565b604051809103905ff080158015620001b3573d5f803e3d5ffd5b5060015f6101000a81548173ffffffffffffffffffffffffffffffffffffffff021916908373ffffffffffffffffffffffffffffffffffffffff1602179055505f5b8351811015620002d45760015f9054906101000a900473ffffffffffffffffffffffffffffffffffffffff1673ffffffffffffffffffffffffffffffffffffffff1663f7d97577858381518110620002525762000251620007cf565b5b602002602001015185848151811062000270576200026f620007cf565b5b60200260200101516040518363ffffffff1660e01b8152600401620002979291906200080d565b5f604051808303815f87803b158015620002af575f80fd5b505af1158015620002c2573d5f803e3d5ffd5b505050508080600101915050620001f5565b50505050505062000838565b61300180620024f683390190565b5f604051905090565b5f80fd5b5f80fd5b5f73ffffffffffffffffffffffffffffffffffffffff82169050919050565b5f6200032a82620002ff565b9050919050565b6200033c816200031e565b811462000347575f80fd5b50565b5f815190506200035a8162000331565b92915050565b5f80fd5b5f601f19601f8301169050919050565b7f4e487b71000000000000000000000000000000000000000000000000000000005f52604160045260245ffd5b620003ac8262000364565b810181811067ffffffffffffffff82111715620003ce57620003cd62000374565b5b80604052505050565b5f620003e2620002ee565b9050620003f08282620003a1565b919050565b5f67ffffffffffffffff82111562000412576200041162000374565b5b602082029050602081019050919050565b5f80fd5b5f819050919050565b6200043b8162000427565b811462000446575f80fd5b50565b5f81519050620004598162000430565b92915050565b5f620004756200046f84620003f5565b620003d7565b905080838252602082019050602084028301858111156200049b576200049a62000423565b5b835b81811015620004c85780620004b3888262000449565b8452602084019350506020810190506200049d565b5050509392505050565b5f82601f830112620004e957620004e862000360565b5b8151620004fb8482602086016200045f565b91505092915050565b5f80fd5b5f67ffffffffffffffff82111562000525576200052462000374565b5b620005308262000364565b9050602081019050919050565b5f5b838110156200055c5780820151818401526020810190506200053f565b5f8484015250505050565b5f6200057d620005778462000508565b620003d7565b9050828152602081018484840111156200059c576200059b62000504565b5b620005a98482856200053d565b509392505050565b5f82601f830112620005c857620005c762000360565b5b8151620005da84826020860162000567565b91505092915050565b5f805f805f60a08688031215620005ff57620005fe620002f7565b5b5f6200060e888289016200034a565b955050602062000621888289016200034a565b945050604086015167ffffffffffffffff811115620006455762000644620002fb565b5b6200065388828901620004d2565b935050606086015167ffffffffffffffff811115620006775762000676620002fb565b5b6200068588828901620004d2565b925050608086015167ffffffffffffffff811115620006a957620006a8620002fb565b5b620006b788828901620005b1565b9150509295509295909350565b5f82825260208201905092915050565b7f496e76616c696420636f6e7374727563746f7220706172616d730000000000005f82015250565b5f6200070a601a83620006c4565b91506200071782620006d4565b602082019050919050565b5f6020820190508181035f8301526200073b81620006fc565b9050919050565b5f81519050919050565b5f620007588262000742565b620007648185620006c4565b9350620007768185602086016200053d565b620007818162000364565b840191505092915050565b62000797816200031e565b82525050565b5f6040820190508181035f830152620007b781856200074c565b9050620007c860208301846200078c565b9392505050565b7f4e487b71000000000000000000000000000000000000000000000000000000005f52603260045260245ffd5b620008078162000427565b82525050565b5f604082019050620008225f830185620007fc565b620008316020830184620007fc565b9392505050565b608051611c9e620008585f395f818161020501526105f70152611c9e5ff3fe60806040526004361061006f575f3560e01c806370a082311161004d57806370a082311461010357806395d89b411461013f578063d38ea5bf14610169578063f5b2d01c146101855761006f565b806301ffc9a714610073578063313ce567146100af57806355155b1e146100d9575b5f80fd5b34801561007e575f80fd5b5061009960048036038101906100949190610e76565b6101c1565b6040516100a69190610ebb565b60405180910390f35b3480156100ba575f80fd5b506100c36101c7565b6040516100d09190610eef565b60405180910390f35b3480156100e4575f80fd5b506100ed610203565b6040516100fa9190610f47565b60405180910390f35b34801561010e575f80fd5b5061012960048036038101906101249190610f8a565b610227565b6040516101369190610fcd565b60405180910390f35b34801561014a575f80fd5b50610153610263565b6040516101609190611070565b60405180910390f35b610183600480360381019061017e91906110ba565b6102a0565b005b348015610190575f80fd5b506101ab60048036038101906101a69190610f8a565b610810565b6040516101b8919061119c565b60405180910390f35b5f919050565b5f6040517f08c379a00000000000000000000000000000000000000000000000000000000081526004016101fa90611206565b60405180910390fd5b7f000000000000000000000000000000000000000000000000000000000000000081565b5f6040517f08c379a000000000000000000000000000000000000000000000000000000000815260040161025a90611206565b60405180910390fd5b60606040517f08c379a000000000000000000000000000000000000000000000000000000000815260040161029790611206565b60405180910390fd5b5f60015f9054906101000a900473ffffffffffffffffffffffffffffffffffffffff1673ffffffffffffffffffffffffffffffffffffffff1663b9186d7d836040518263ffffffff1660e01b81526004016102fb9190610fcd565b602060405180830381865afa158015610316573d5f803e3d5ffd5b505050506040513d601f19601f8201168201806040525081019061033a9190611238565b90505f810361037e576040517f08c379a0000000000000000000000000000000000000000000000000000000008152600401610375906112ad565b60405180910390fd5b6103bd6040518060400160405280602081526020017f43757272656e74206974656d20707269636520696e207573642063656e74733a81525082610bb4565b5f6103c6610c50565b90505f81121561040b576040517f08c379a000000000000000000000000000000000000000000000000000000000815260040161040290611315565b60405180910390fd5b5f81905061044e6040518060400160405280601681526020017f43757272656e7420507269636520534f4c2f5553443a0000000000000000000081525082610bb4565b5f805f9054906101000a900473ffffffffffffffffffffffffffffffffffffffff1673ffffffffffffffffffffffffffffffffffffffff1663313ce5676040518163ffffffff1660e01b8152600401602060405180830381865afa1580156104b8573d5f803e3d5ffd5b505050506040513d601f19601f820116820180604052508101906104dc919061135d565b60ff1690506105206040518060400160405280600c81526020017f446563696d616c733a202573000000000000000000000000000000000000000081525082610bb4565b5f600990505f606483600a61053591906114e4565b83600a61054291906114e4565b8861054d919061152e565b610557919061152e565b610561919061159c565b90505f8482610570919061159c565b90506105b16040518060400160405280601681526020017f4974656d20707269636520696e20534f4c207765693a0000000000000000000081525082610bb4565b803410156105f4576040517f08c379a00000000000000000000000000000000000000000000000000000000081526004016105eb90611616565b60405180910390fd5b5f7f000000000000000000000000000000000000000000000000000000000000000073ffffffffffffffffffffffffffffffffffffffff168260405161063990611661565b5f6040518083038185875af1925050503d805f8114610673576040519150601f19603f3d011682016040523d82523d5f602084013e610678565b606091505b50509050806106bc576040517f08c379a00000000000000000000000000000000000000000000000000000000081526004016106b3906112ad565b60405180910390fd5b60015f9054906101000a900473ffffffffffffffffffffffffffffffffffffffff1673ffffffffffffffffffffffffffffffffffffffff1663731133e9338b60016040518463ffffffff1660e01b815260040161071b939291906116e7565b5f604051808303815f87803b158015610732575f80fd5b505af1158015610744573d5f803e3d5ffd5b5050505081341115610805575f3373ffffffffffffffffffffffffffffffffffffffff168334610774919061172f565b60405161078090611661565b5f6040518083038185875af1925050503d805f81146107ba576040519150601f19603f3d011682016040523d82523d5f602084013e6107bf565b606091505b5050905080610803576040517f08c379a00000000000000000000000000000000000000000000000000000000081526004016107fa906117ac565b60405180910390fd5b505b505050505050505050565b60605f73ffffffffffffffffffffffffffffffffffffffff168273ffffffffffffffffffffffffffffffffffffffff1603610895575f67ffffffffffffffff81111561085f5761085e6117ca565b5b60405190808252806020026020018201604052801561088d5781602001602082028036833780820191505090505b509050610baf565b5f60015f9054906101000a900473ffffffffffffffffffffffffffffffffffffffff1673ffffffffffffffffffffffffffffffffffffffff1663c06fad066040518163ffffffff1660e01b81526004015f60405180830381865afa1580156108ff573d5f803e3d5ffd5b505050506040513d5f823e3d601f19601f82011682018060405250810190610927919061190a565b90505f805b8251811015610a14575f83828151811061094957610948611951565b5b602002602001015190505f60015f9054906101000a900473ffffffffffffffffffffffffffffffffffffffff1673ffffffffffffffffffffffffffffffffffffffff1662fdd58e88846040518363ffffffff1660e01b81526004016109af92919061197e565b602060405180830381865afa1580156109ca573d5f803e3d5ffd5b505050506040513d601f19601f820116820180604052508101906109ee9190611238565b90505f811115610a07578380610a03906119a5565b9450505b505080600101905061092c565b505f600282610a23919061152e565b67ffffffffffffffff811115610a3c57610a3b6117ca565b5b604051908082528060200260200182016040528015610a6a5781602001602082028036833780820191505090505b5090505f805b8451811015610ba6575f858281518110610a8d57610a8c611951565b5b602002602001015190505f60015f9054906101000a900473ffffffffffffffffffffffffffffffffffffffff1673ffffffffffffffffffffffffffffffffffffffff1662fdd58e8a846040518363ffffffff1660e01b8152600401610af392919061197e565b602060405180830381865afa158015610b0e573d5f803e3d5ffd5b505050506040513d601f19601f82011682018060405250810190610b329190611238565b90505f811115610b995781858581518110610b5057610b4f611951565b5b6020026020010181815250508380610b67906119a5565b94505080858581518110610b7e57610b7d611951565b5b6020026020010181815250508380610b95906119a5565b9450505b5050806001019050610a70565b50819450505050505b919050565b610c4c8282604051602401610bca9291906119ec565b6040516020818303038152906040527fb60e72cc000000000000000000000000000000000000000000000000000000007bffffffffffffffffffffffffffffffffffffffffffffffffffffffff19166020820180517bffffffffffffffffffffffffffffffffffffffffffffffffffffffff8381831617835250505050610dc2565b5050565b5f805f805f9054906101000a900473ffffffffffffffffffffffffffffffffffffffff1673ffffffffffffffffffffffffffffffffffffffff1663feaf968c6040518163ffffffff1660e01b815260040160a060405180830381865afa158015610cbc573d5f803e3d5ffd5b505050506040513d601f19601f82011682018060405250810190610ce09190611a8c565b509350509250505f8213610d29576040517f08c379a0000000000000000000000000000000000000000000000000000000008152600401610d2090611b4d565b60405180910390fd5b5f8103610d6b576040517f08c379a0000000000000000000000000000000000000000000000000000000008152600401610d6290611bb5565b60405180910390fd5b610e108142610d7a919061172f565b10610dba576040517f08c379a0000000000000000000000000000000000000000000000000000000008152600401610db190611c1d565b60405180910390fd5b819250505090565b610dd981610dd1610ddc610dfb565b63ffffffff16565b50565b5f6a636f6e736f6c652e6c6f6790505f80835160208501845afa505050565b610e06819050919050565b610e0e611c3b565b565b5f604051905090565b5f80fd5b5f80fd5b5f7fffffffff0000000000000000000000000000000000000000000000000000000082169050919050565b610e5581610e21565b8114610e5f575f80fd5b50565b5f81359050610e7081610e4c565b92915050565b5f60208284031215610e8b57610e8a610e19565b5b5f610e9884828501610e62565b91505092915050565b5f8115159050919050565b610eb581610ea1565b82525050565b5f602082019050610ece5f830184610eac565b92915050565b5f60ff82169050919050565b610ee981610ed4565b82525050565b5f602082019050610f025f830184610ee0565b92915050565b5f73ffffffffffffffffffffffffffffffffffffffff82169050919050565b5f610f3182610f08565b9050919050565b610f4181610f27565b82525050565b5f602082019050610f5a5f830184610f38565b92915050565b610f6981610f27565b8114610f73575f80fd5b50565b5f81359050610f8481610f60565b92915050565b5f60208284031215610f9f57610f9e610e19565b5b5f610fac84828501610f76565b91505092915050565b5f819050919050565b610fc781610fb5565b82525050565b5f602082019050610fe05f830184610fbe565b92915050565b5f81519050919050565b5f82825260208201905092915050565b5f5b8381101561101d578082015181840152602081019050611002565b5f8484015250505050565b5f601f19601f8301169050919050565b5f61104282610fe6565b61104c8185610ff0565b935061105c818560208601611000565b61106581611028565b840191505092915050565b5f6020820190508181035f8301526110888184611038565b905092915050565b61109981610fb5565b81146110a3575f80fd5b50565b5f813590506110b481611090565b92915050565b5f602082840312156110cf576110ce610e19565b5b5f6110dc848285016110a6565b91505092915050565b5f81519050919050565b5f82825260208201905092915050565b5f819050602082019050919050565b61111781610fb5565b82525050565b5f611128838361110e565b60208301905092915050565b5f602082019050919050565b5f61114a826110e5565b61115481856110ef565b935061115f836110ff565b805f5b8381101561118f578151611176888261111d565b975061118183611134565b925050600181019050611162565b5085935050505092915050565b5f6020820190508181035f8301526111b48184611140565b905092915050565b7f46756e6374696f6e206e6f7420737570706f72746564000000000000000000005f82015250565b5f6111f0601683610ff0565b91506111fb826111bc565b602082019050919050565b5f6020820190508181035f83015261121d816111e4565b9050919050565b5f8151905061123281611090565b92915050565b5f6020828403121561124d5761124c610e19565b5b5f61125a84828501611224565b91505092915050565b7f5472616e73666572206661696c656400000000000000000000000000000000005f82015250565b5f611297600f83610ff0565b91506112a282611263565b602082019050919050565b5f6020820190508181035f8301526112c48161128b565b9050919050565b7f5072696365206d757374206265206e6f6e6e65676174697665000000000000005f82015250565b5f6112ff601983610ff0565b915061130a826112cb565b602082019050919050565b5f6020820190508181035f83015261132c816112f3565b9050919050565b61133c81610ed4565b8114611346575f80fd5b50565b5f8151905061135781611333565b92915050565b5f6020828403121561137257611371610e19565b5b5f61137f84828501611349565b91505092915050565b7f4e487b71000000000000000000000000000000000000000000000000000000005f52601160045260245ffd5b5f8160011c9050919050565b5f808291508390505b600185111561140a578086048111156113e6576113e5611388565b5b60018516156113f55780820291505b8081029050611403856113b5565b94506113ca565b94509492505050565b5f8261142257600190506114dd565b8161142f575f90506114dd565b8160018114611445576002811461144f5761147e565b60019150506114dd565b60ff84111561146157611460611388565b5b8360020a91508482111561147857611477611388565b5b506114dd565b5060208310610133831016604e8410600b84101617156114b35782820a9050838111156114ae576114ad611388565b5b6114dd565b6114c084848460016113c1565b925090508184048111156114d7576114d6611388565b5b81810290505b9392505050565b5f6114ee82610fb5565b91506114f983610fb5565b92506115267fffffffffffffffffffffffffffffffffffffffffffffffffffffffffffffffff8484611413565b905092915050565b5f61153882610fb5565b915061154383610fb5565b925082820261155181610fb5565b9150828204841483151761156857611567611388565b5b5092915050565b7f4e487b71000000000000000000000000000000000000000000000000000000005f52601260045260245ffd5b5f6115a682610fb5565b91506115b183610fb5565b9250826115c1576115c061156f565b5b828204905092915050565b7f496e73756666696369656e742066756e647300000000000000000000000000005f82015250565b5f611600601283610ff0565b915061160b826115cc565b602082019050919050565b5f6020820190508181035f83015261162d816115f4565b9050919050565b5f81905092915050565b50565b5f61164c5f83611634565b91506116578261163e565b5f82019050919050565b5f61166b82611641565b9150819050919050565b5f819050919050565b5f819050919050565b5f6116a161169c61169784611675565b61167e565b610fb5565b9050919050565b6116b181611687565b82525050565b5f82825260208201905092915050565b5f6116d25f836116b7565b91506116dd8261163e565b5f82019050919050565b5f6080820190506116fa5f830186610f38565b6117076020830185610fbe565b61171460408301846116a8565b8181036060830152611725816116c7565b9050949350505050565b5f61173982610fb5565b915061174483610fb5565b925082820390508181111561175c5761175b611388565b5b92915050565b7f526566756e64206661696c6564000000000000000000000000000000000000005f82015250565b5f611796600d83610ff0565b91506117a182611762565b602082019050919050565b5f6020820190508181035f8301526117c38161178a565b9050919050565b7f4e487b71000000000000000000000000000000000000000000000000000000005f52604160045260245ffd5b5f80fd5b61180482611028565b810181811067ffffffffffffffff82111715611823576118226117ca565b5b80604052505050565b5f611835610e10565b905061184182826117fb565b919050565b5f67ffffffffffffffff8211156118605761185f6117ca565b5b602082029050602081019050919050565b5f80fd5b5f61188761188284611846565b61182c565b905080838252602082019050602084028301858111156118aa576118a9611871565b5b835b818110156118d357806118bf8882611224565b8452602084019350506020810190506118ac565b5050509392505050565b5f82601f8301126118f1576118f06117f7565b5b8151611901848260208601611875565b91505092915050565b5f6020828403121561191f5761191e610e19565b5b5f82015167ffffffffffffffff81111561193c5761193b610e1d565b5b611948848285016118dd565b91505092915050565b7f4e487b71000000000000000000000000000000000000000000000000000000005f52603260045260245ffd5b5f6040820190506119915f830185610f38565b61199e6020830184610fbe565b9392505050565b5f6119af82610fb5565b91507fffffffffffffffffffffffffffffffffffffffffffffffffffffffffffffffff82036119e1576119e0611388565b5b600182019050919050565b5f6040820190508181035f830152611a048185611038565b9050611a136020830184610fbe565b9392505050565b5f69ffffffffffffffffffff82169050919050565b611a3881611a1a565b8114611a42575f80fd5b50565b5f81519050611a5381611a2f565b92915050565b5f819050919050565b611a6b81611a59565b8114611a75575f80fd5b50565b5f81519050611a8681611a62565b92915050565b5f805f805f60a08688031215611aa557611aa4610e19565b5b5f611ab288828901611a45565b9550506020611ac388828901611a78565b9450506040611ad488828901611224565b9350506060611ae588828901611224565b9250506080611af688828901611a45565b9150509295509295909350565b7f496e76616c6964207072696365000000000000000000000000000000000000005f82015250565b5f611b37600d83610ff0565b9150611b4282611b03565b602082019050919050565b5f6020820190508181035f830152611b6481611b2b565b9050919050565b7f526f756e64206e6f7420636f6d706c65746500000000000000000000000000005f82015250565b5f611b9f601283610ff0565b9150611baa82611b6b565b602082019050919050565b5f6020820190508181035f830152611bcc81611b93565b9050919050565b7f5374616c652070726963650000000000000000000000000000000000000000005f82015250565b5f611c07600b83610ff0565b9150611c1282611bd3565b602082019050919050565b5f6020820190508181035f830152611c3481611bfb565b9050919050565b7f4e487b71000000000000000000000000000000000000000000000000000000005f52605160045260245ffdfea26469706673582212209cc4cab121c44d364dc85c6970a44b62f2d9d6bb2719d646de9ee48a0939ef7c64736f6c63430008180033608060405234801562000010575f80fd5b506040516200300138038062003001833981810160405281019062000036919062000395565b80826200004981620000d760201b60201c565b505f73ffffffffffffffffffffffffffffffffffffffff168173ffffffffffffffffffffffffffffffffffffffff1603620000bd575f6040517f1e4fbdf7000000000000000000000000000000000000000000000000000000008152600401620000b491906200040a565b60405180910390fd5b620000ce81620000ec60201b60201c565b50505062000740565b8060029081620000e891906200065c565b5050565b5f60035f9054906101000a900473ffffffffffffffffffffffffffffffffffffffff1690508160035f6101000a81548173ffffffffffffffffffffffffffffffffffffffff021916908373ffffffffffffffffffffffffffffffffffffffff1602179055508173ffffffffffffffffffffffffffffffffffffffff168173ffffffffffffffffffffffffffffffffffffffff167f8be0079c531659141344cd1fd0a4f28419497f9722a3daafe3b4186f6b6457e060405160405180910390a35050565b5f604051905090565b5f80fd5b5f80fd5b5f80fd5b5f80fd5b5f601f19601f8301169050919050565b7f4e487b71000000000000000000000000000000000000000000000000000000005f52604160045260245ffd5b6200021082620001c8565b810181811067ffffffffffffffff82111715620002325762000231620001d8565b5b80604052505050565b5f62000246620001af565b905062000254828262000205565b919050565b5f67ffffffffffffffff821115620002765762000275620001d8565b5b6200028182620001c8565b9050602081019050919050565b5f5b83811015620002ad57808201518184015260208101905062000290565b5f8484015250505050565b5f620002ce620002c88462000259565b6200023b565b905082815260208101848484011115620002ed57620002ec620001c4565b5b620002fa8482856200028e565b509392505050565b5f82601f830112620003195762000318620001c0565b5b81516200032b848260208601620002b8565b91505092915050565b5f73ffffffffffffffffffffffffffffffffffffffff82169050919050565b5f6200035f8262000334565b9050919050565b620003718162000353565b81146200037c575f80fd5b50565b5f815190506200038f8162000366565b92915050565b5f8060408385031215620003ae57620003ad620001b8565b5b5f83015167ffffffffffffffff811115620003ce57620003cd620001bc565b5b620003dc8582860162000302565b9250506020620003ef858286016200037f565b9150509250929050565b620004048162000353565b82525050565b5f6020820190506200041f5f830184620003f9565b92915050565b5f81519050919050565b7f4e487b71000000000000000000000000000000000000000000000000000000005f52602260045260245ffd5b5f60028204905060018216806200047457607f821691505b6020821081036200048a57620004896200042f565b5b50919050565b5f819050815f5260205f209050919050565b5f6020601f8301049050919050565b5f82821b905092915050565b5f60088302620004ee7fffffffffffffffffffffffffffffffffffffffffffffffffffffffffffffffff82620004b1565b620004fa8683620004b1565b95508019841693508086168417925050509392505050565b5f819050919050565b5f819050919050565b5f620005446200053e620005388462000512565b6200051b565b62000512565b9050919050565b5f819050919050565b6200055f8362000524565b620005776200056e826200054b565b848454620004bd565b825550505050565b5f90565b6200058d6200057f565b6200059a81848462000554565b505050565b5b81811015620005c157620005b55f8262000583565b600181019050620005a0565b5050565b601f8211156200061057620005da8162000490565b620005e584620004a2565b81016020851015620005f5578190505b6200060d6200060485620004a2565b8301826200059f565b50505b505050565b5f82821c905092915050565b5f620006325f198460080262000615565b1980831691505092915050565b5f6200064c838362000621565b9150826002028217905092915050565b620006678262000425565b67ffffffffffffffff811115620006835762000682620001d8565b5b6200068f82546200045c565b6200069c828285620005c5565b5f60209050601f831160018114620006d2575f8415620006bd578287015190505b620006c985826200063f565b86555062000738565b601f198416620006e28662000490565b5f5b828110156200070b57848901518255600182019150602085019450602081019050620006e4565b868310156200072b578489015162000727601f89168262000621565b8355505b6001600288020188555050505b505050505050565b6128b3806200074e5f395ff3fe608060405234801561000f575f80fd5b50600436106100fd575f3560e01c80638da5cb5b11610095578063e985e9c511610064578063e985e9c5146102bb578063f242432a146102eb578063f2fde38b14610307578063f7d9757714610323576100fd565b80638da5cb5b14610233578063a22cb46514610251578063b9186d7d1461026d578063c06fad061461029d576100fd565b80634e1273f4116100d15780634e1273f4146101ad5780636352211e146101dd578063715018a61461020d578063731133e914610217576100fd565b8062fdd58e1461010157806301ffc9a7146101315780630e89341c146101615780632eb2c2d614610191575b5f80fd5b61011b60048036038101906101169190611acf565b61033f565b6040516101289190611b1c565b60405180910390f35b61014b60048036038101906101469190611b8a565b610394565b6040516101589190611bcf565b60405180910390f35b61017b60048036038101906101769190611be8565b610475565b6040516101889190611c9d565b60405180910390f35b6101ab60048036038101906101a69190611ead565b6104b0565b005b6101c760048036038101906101c29190612038565b610557565b6040516101d49190612165565b60405180910390f35b6101f760048036038101906101f29190611be8565b61065e565b6040516102049190612194565b60405180910390f35b61021561069a565b005b610231600480360381019061022c91906121ad565b6106ad565b005b61023b61071a565b6040516102489190612194565b60405180910390f35b61026b60048036038101906102669190612257565b610742565b005b61028760048036038101906102829190611be8565b610758565b6040516102949190611b1c565b60405180910390f35b6102a5610772565b6040516102b29190612165565b60405180910390f35b6102d560048036038101906102d09190612295565b6107c8565b6040516102e29190611bcf565b60405180910390f35b610305600480360381019061030091906122d3565b610856565b005b610321600480360381019061031c9190612366565b6108fd565b005b61033d60048036038101906103389190612391565b610981565b005b5f805f8381526020019081526020015f205f8473ffffffffffffffffffffffffffffffffffffffff1673ffffffffffffffffffffffffffffffffffffffff1681526020019081526020015f2054905092915050565b5f7fd9b67a26000000000000000000000000000000000000000000000000000000007bffffffffffffffffffffffffffffffffffffffffffffffffffffffff1916827bffffffffffffffffffffffffffffffffffffffffffffffffffffffff1916148061045e57507f0e89341c000000000000000000000000000000000000000000000000000000007bffffffffffffffffffffffffffffffffffffffffffffffffffffffff1916827bffffffffffffffffffffffffffffffffffffffffffffffffffffffff1916145b8061046e575061046d826109e2565b5b9050919050565b606061048082610a4b565b61048983610add565b60405160200161049a929190612453565b6040516020818303038152906040529050919050565b5f6104b9610ba7565b90508073ffffffffffffffffffffffffffffffffffffffff168673ffffffffffffffffffffffffffffffffffffffff16141580156104fe57506104fc86826107c8565b155b156105425780866040517fe237d922000000000000000000000000000000000000000000000000000000008152600401610539929190612481565b60405180910390fd5b61054f8686868686610bae565b505050505050565b606081518351146105a357815183516040517f5b05999100000000000000000000000000000000000000000000000000000000815260040161059a9291906124a8565b60405180910390fd5b5f835167ffffffffffffffff8111156105bf576105be611cc1565b5b6040519080825280602002602001820160405280156105ed5781602001602082028036833780820191505090505b5090505f5b8451811015610653576106296106118287610ca290919063ffffffff16565b6106248387610cb590919063ffffffff16565b61033f565b82828151811061063c5761063b6124cf565b5b6020026020010181815250508060010190506105f2565b508091505092915050565b5f6040517f08c379a000000000000000000000000000000000000000000000000000000000815260040161069190612546565b60405180910390fd5b6106a2610cc8565b6106ab5f610d4f565b565b6106b5610cc8565b5f60055f8581526020019081526020015f205403610708576040517f08c379a00000000000000000000000000000000000000000000000000000000081526004016106ff906125ae565b60405180910390fd5b61071484848484610e12565b50505050565b5f60035f9054906101000a900473ffffffffffffffffffffffffffffffffffffffff16905090565b61075461074d610ba7565b8383610ea7565b5050565b5f60055f8381526020019081526020015f20549050919050565b606060048054806020026020016040519081016040528092919081815260200182805480156107be57602002820191905f5260205f20905b8154815260200190600101908083116107aa575b5050505050905090565b5f60015f8473ffffffffffffffffffffffffffffffffffffffff1673ffffffffffffffffffffffffffffffffffffffff1681526020019081526020015f205f8373ffffffffffffffffffffffffffffffffffffffff1673ffffffffffffffffffffffffffffffffffffffff1681526020019081526020015f205f9054906101000a900460ff16905092915050565b5f61085f610ba7565b90508073ffffffffffffffffffffffffffffffffffffffff168673ffffffffffffffffffffffffffffffffffffffff16141580156108a457506108a286826107c8565b155b156108e85780866040517fe237d9220000000000000000000000000000000000000000000000000000000081526004016108df929190612481565b60405180910390fd5b6108f58686868686611010565b505050505050565b610905610cc8565b5f73ffffffffffffffffffffffffffffffffffffffff168173ffffffffffffffffffffffffffffffffffffffff1603610975575f6040517f1e4fbdf700000000000000000000000000000000000000000000000000000000815260040161096c9190612194565b60405180910390fd5b61097e81610d4f565b50565b610989610cc8565b5f60055f8481526020019081526020015f2054036109c857600482908060018154018082558091505060019003905f5260205f20015f90919091909150555b8060055f8481526020019081526020015f20819055505050565b5f7f01ffc9a7000000000000000000000000000000000000000000000000000000007bffffffffffffffffffffffffffffffffffffffffffffffffffffffff1916827bffffffffffffffffffffffffffffffffffffffffffffffffffffffff1916149050919050565b606060028054610a5a906125f9565b80601f0160208091040260200160405190810160405280929190818152602001828054610a86906125f9565b8015610ad15780601f10610aa857610100808354040283529160200191610ad1565b820191905f5260205f20905b815481529060010190602001808311610ab457829003601f168201915b50505050509050919050565b60605f6001610aeb84611116565b0190505f8167ffffffffffffffff811115610b0957610b08611cc1565b5b6040519080825280601f01601f191660200182016040528015610b3b5781602001600182028036833780820191505090505b5090505f82602083010190505b600115610b9c578080600190039150507f3031323334353637383961626364656600000000000000000000000000000000600a86061a8153600a8581610b9157610b90612629565b5b0494505f8503610b48575b819350505050919050565b5f33905090565b5f73ffffffffffffffffffffffffffffffffffffffff168473ffffffffffffffffffffffffffffffffffffffff1603610c1e575f6040517f57f447ce000000000000000000000000000000000000000000000000000000008152600401610c159190612194565b60405180910390fd5b5f73ffffffffffffffffffffffffffffffffffffffff168573ffffffffffffffffffffffffffffffffffffffff1603610c8e575f6040517f01a83514000000000000000000000000000000000000000000000000000000008152600401610c859190612194565b60405180910390fd5b610c9b8585858585611267565b5050505050565b5f60208202602084010151905092915050565b5f60208202602084010151905092915050565b610cd0610ba7565b73ffffffffffffffffffffffffffffffffffffffff16610cee61071a565b73ffffffffffffffffffffffffffffffffffffffff1614610d4d57610d11610ba7565b6040517f118cdaa7000000000000000000000000000000000000000000000000000000008152600401610d449190612194565b60405180910390fd5b565b5f60035f9054906101000a900473ffffffffffffffffffffffffffffffffffffffff1690508160035f6101000a81548173ffffffffffffffffffffffffffffffffffffffff021916908373ffffffffffffffffffffffffffffffffffffffff1602179055508173ffffffffffffffffffffffffffffffffffffffff168173ffffffffffffffffffffffffffffffffffffffff167f8be0079c531659141344cd1fd0a4f28419497f9722a3daafe3b4186f6b6457e060405160405180910390a35050565b5f73ffffffffffffffffffffffffffffffffffffffff168473ffffffffffffffffffffffffffffffffffffffff1603610e82575f6040517f57f447ce000000000000000000000000000000000000000000000000000000008152600401610e799190612194565b60405180910390fd5b5f80610e8e8585611313565b91509150610e9f5f87848487611267565b505050505050565b5f73ffffffffffffffffffffffffffffffffffffffff168273ffffffffffffffffffffffffffffffffffffffff1603610f17575f6040517fced3e100000000000000000000000000000000000000000000000000000000008152600401610f0e9190612194565b60405180910390fd5b8060015f8573ffffffffffffffffffffffffffffffffffffffff1673ffffffffffffffffffffffffffffffffffffffff1681526020019081526020015f205f8473ffffffffffffffffffffffffffffffffffffffff1673ffffffffffffffffffffffffffffffffffffffff1681526020019081526020015f205f6101000a81548160ff0219169083151502179055508173ffffffffffffffffffffffffffffffffffffffff168373ffffffffffffffffffffffffffffffffffffffff167f17307eab39ab6107e8899845ad3d59bd9653f200f220920489ca2b5937696c31836040516110039190611bcf565b60405180910390a3505050565b5f73ffffffffffffffffffffffffffffffffffffffff168473ffffffffffffffffffffffffffffffffffffffff1603611080575f6040517f57f447ce0000000000000000000000000000000000000000000000000000000081526004016110779190612194565b60405180910390fd5b5f73ffffffffffffffffffffffffffffffffffffffff168573ffffffffffffffffffffffffffffffffffffffff16036110f0575f6040517f01a835140000000000000000000000000000000000000000000000000000000081526004016110e79190612194565b60405180910390fd5b5f806110fc8585611313565b9150915061110d8787848487611267565b50505050505050565b5f805f90507a184f03e93ff9f4daa797ed6e38ed64bf6a1f0100000000000000008310611172577a184f03e93ff9f4daa797ed6e38ed64bf6a1f010000000000000000838161116857611167612629565b5b0492506040810190505b6d04ee2d6d415b85acef810000000083106111af576d04ee2d6d415b85acef810000000083816111a5576111a4612629565b5b0492506020810190505b662386f26fc1000083106111de57662386f26fc1000083816111d4576111d3612629565b5b0492506010810190505b6305f5e1008310611207576305f5e10083816111fd576111fc612629565b5b0492506008810190505b612710831061122c57612710838161122257611221612629565b5b0492506004810190505b6064831061124f576064838161124557611244612629565b5b0492506002810190505b600a831061125e576001810190505b80915050919050565b61127385858585611343565b5f73ffffffffffffffffffffffffffffffffffffffff168473ffffffffffffffffffffffffffffffffffffffff161461130c575f6112af610ba7565b905060018451036112fb575f6112ce5f86610cb590919063ffffffff16565b90505f6112e45f86610cb590919063ffffffff16565b90506112f48389898585896116d3565b505061130a565b611309818787878787611882565b5b505b5050505050565b60608060405191506001825283602083015260408201905060018152826020820152604081016040529250929050565b805182511461138d57815181516040517f5b0599910000000000000000000000000000000000000000000000000000000081526004016113849291906124a8565b60405180910390fd5b5f611396610ba7565b90505f5b8351811015611592575f6113b78286610cb590919063ffffffff16565b90505f6113cd8386610cb590919063ffffffff16565b90505f73ffffffffffffffffffffffffffffffffffffffff168873ffffffffffffffffffffffffffffffffffffffff16146114f0575f805f8481526020019081526020015f205f8a73ffffffffffffffffffffffffffffffffffffffff1673ffffffffffffffffffffffffffffffffffffffff1681526020019081526020015f205490508181101561149c57888183856040517f03dee4c50000000000000000000000000000000000000000000000000000000081526004016114939493929190612656565b60405180910390fd5b8181035f808581526020019081526020015f205f8b73ffffffffffffffffffffffffffffffffffffffff1673ffffffffffffffffffffffffffffffffffffffff1681526020019081526020015f2081905550505b5f73ffffffffffffffffffffffffffffffffffffffff168773ffffffffffffffffffffffffffffffffffffffff161461158557805f808481526020019081526020015f205f8973ffffffffffffffffffffffffffffffffffffffff1673ffffffffffffffffffffffffffffffffffffffff1681526020019081526020015f205f82825461157d91906126c6565b925050819055505b505080600101905061139a565b50600183510361164d575f6115b05f85610cb590919063ffffffff16565b90505f6115c65f85610cb590919063ffffffff16565b90508573ffffffffffffffffffffffffffffffffffffffff168773ffffffffffffffffffffffffffffffffffffffff168473ffffffffffffffffffffffffffffffffffffffff167fc3d58168c5ae7397731d063d5bbf3d657854427343f4c083240f7aacaa2d0f62858560405161163e9291906124a8565b60405180910390a450506116cc565b8373ffffffffffffffffffffffffffffffffffffffff168573ffffffffffffffffffffffffffffffffffffffff168273ffffffffffffffffffffffffffffffffffffffff167f4a39dc06d4c0dbc64b70af90fd698a233a518aa5d07e595d983b8c0526c8f7fb86866040516116c39291906126f9565b60405180910390a45b5050505050565b5f8473ffffffffffffffffffffffffffffffffffffffff163b111561187a578373ffffffffffffffffffffffffffffffffffffffff1663f23a6e6187878686866040518663ffffffff1660e01b8152600401611733959493929190612780565b6020604051808303815f875af192505050801561176e57506040513d601f19601f8201168201806040525081019061176b91906127ec565b60015b6117ef573d805f811461179c576040519150601f19603f3d011682016040523d82523d5f602084013e6117a1565b606091505b505f8151036117e757846040517f57f447ce0000000000000000000000000000000000000000000000000000000081526004016117de9190612194565b60405180910390fd5b805160208201fd5b63f23a6e6160e01b7bffffffffffffffffffffffffffffffffffffffffffffffffffffffff1916817bffffffffffffffffffffffffffffffffffffffffffffffffffffffff19161461187857846040517f57f447ce00000000000000000000000000000000000000000000000000000000815260040161186f9190612194565b60405180910390fd5b505b505050505050565b5f8473ffffffffffffffffffffffffffffffffffffffff163b1115611a29578373ffffffffffffffffffffffffffffffffffffffff1663bc197c8187878686866040518663ffffffff1660e01b81526004016118e2959493929190612817565b6020604051808303815f875af192505050801561191d57506040513d601f19601f8201168201806040525081019061191a91906127ec565b60015b61199e573d805f811461194b576040519150601f19603f3d011682016040523d82523d5f602084013e611950565b606091505b505f81510361199657846040517f57f447ce00000000000000000000000000000000000000000000000000000000815260040161198d9190612194565b60405180910390fd5b805160208201fd5b63bc197c8160e01b7bffffffffffffffffffffffffffffffffffffffffffffffffffffffff1916817bffffffffffffffffffffffffffffffffffffffffffffffffffffffff191614611a2757846040517f57f447ce000000000000000000000000000000000000000000000000000000008152600401611a1e9190612194565b60405180910390fd5b505b505050505050565b5f604051905090565b5f80fd5b5f80fd5b5f73ffffffffffffffffffffffffffffffffffffffff82169050919050565b5f611a6b82611a42565b9050919050565b611a7b81611a61565b8114611a85575f80fd5b50565b5f81359050611a9681611a72565b92915050565b5f819050919050565b611aae81611a9c565b8114611ab8575f80fd5b50565b5f81359050611ac981611aa5565b92915050565b5f8060408385031215611ae557611ae4611a3a565b5b5f611af285828601611a88565b9250506020611b0385828601611abb565b9150509250929050565b611b1681611a9c565b82525050565b5f602082019050611b2f5f830184611b0d565b92915050565b5f7fffffffff0000000000000000000000000000000000000000000000000000000082169050919050565b611b6981611b35565b8114611b73575f80fd5b50565b5f81359050611b8481611b60565b92915050565b5f60208284031215611b9f57611b9e611a3a565b5b5f611bac84828501611b76565b91505092915050565b5f8115159050919050565b611bc981611bb5565b82525050565b5f602082019050611be25f830184611bc0565b92915050565b5f60208284031215611bfd57611bfc611a3a565b5b5f611c0a84828501611abb565b91505092915050565b5f81519050919050565b5f82825260208201905092915050565b5f5b83811015611c4a578082015181840152602081019050611c2f565b5f8484015250505050565b5f601f19601f8301169050919050565b5f611c6f82611c13565b611c798185611c1d565b9350611c89818560208601611c2d565b611c9281611c55565b840191505092915050565b5f6020820190508181035f830152611cb58184611c65565b905092915050565b5f80fd5b7f4e487b71000000000000000000000000000000000000000000000000000000005f52604160045260245ffd5b611cf782611c55565b810181811067ffffffffffffffff82111715611d1657611d15611cc1565b5b80604052505050565b5f611d28611a31565b9050611d348282611cee565b919050565b5f67ffffffffffffffff821115611d5357611d52611cc1565b5b602082029050602081019050919050565b5f80fd5b5f611d7a611d7584611d39565b611d1f565b90508083825260208201905060208402830185811115611d9d57611d9c611d64565b5b835b81811015611dc65780611db28882611abb565b845260208401935050602081019050611d9f565b5050509392505050565b5f82601f830112611de457611de3611cbd565b5b8135611df4848260208601611d68565b91505092915050565b5f80fd5b5f67ffffffffffffffff821115611e1b57611e1a611cc1565b5b611e2482611c55565b9050602081019050919050565b828183375f83830152505050565b5f611e51611e4c84611e01565b611d1f565b905082815260208101848484011115611e6d57611e6c611dfd565b5b611e78848285611e31565b509392505050565b5f82601f830112611e9457611e93611cbd565b5b8135611ea4848260208601611e3f565b91505092915050565b5f805f805f60a08688031215611ec657611ec5611a3a565b5b5f611ed388828901611a88565b9550506020611ee488828901611a88565b945050604086013567ffffffffffffffff811115611f0557611f04611a3e565b5b611f1188828901611dd0565b935050606086013567ffffffffffffffff811115611f3257611f31611a3e565b5b611f3e88828901611dd0565b925050608086013567ffffffffffffffff811115611f5f57611f5e611a3e565b5b611f6b88828901611e80565b9150509295509295909350565b5f67ffffffffffffffff821115611f9257611f91611cc1565b5b602082029050602081019050919050565b5f611fb5611fb084611f78565b611d1f565b90508083825260208201905060208402830185811115611fd857611fd7611d64565b5b835b818110156120015780611fed8882611a88565b845260208401935050602081019050611fda565b5050509392505050565b5f82601f83011261201f5761201e611cbd565b5b813561202f848260208601611fa3565b91505092915050565b5f806040838503121561204e5761204d611a3a565b5b5f83013567ffffffffffffffff81111561206b5761206a611a3e565b5b6120778582860161200b565b925050602083013567ffffffffffffffff81111561209857612097611a3e565b5b6120a485828601611dd0565b9150509250929050565b5f81519050919050565b5f82825260208201905092915050565b5f819050602082019050919050565b6120e081611a9c565b82525050565b5f6120f183836120d7565b60208301905092915050565b5f602082019050919050565b5f612113826120ae565b61211d81856120b8565b9350612128836120c8565b805f5b8381101561215857815161213f88826120e6565b975061214a836120fd565b92505060018101905061212b565b5085935050505092915050565b5f6020820190508181035f83015261217d8184612109565b905092915050565b61218e81611a61565b82525050565b5f6020820190506121a75f830184612185565b92915050565b5f805f80608085870312156121c5576121c4611a3a565b5b5f6121d287828801611a88565b94505060206121e387828801611abb565b93505060406121f487828801611abb565b925050606085013567ffffffffffffffff81111561221557612214611a3e565b5b61222187828801611e80565b91505092959194509250565b61223681611bb5565b8114612240575f80fd5b50565b5f813590506122518161222d565b92915050565b5f806040838503121561226d5761226c611a3a565b5b5f61227a85828601611a88565b925050602061228b85828601612243565b9150509250929050565b5f80604083850312156122ab576122aa611a3a565b5b5f6122b885828601611a88565b92505060206122c985828601611a88565b9150509250929050565b5f805f805f60a086880312156122ec576122eb611a3a565b5b5f6122f988828901611a88565b955050602061230a88828901611a88565b945050604061231b88828901611abb565b935050606061232c88828901611abb565b925050608086013567ffffffffffffffff81111561234d5761234c611a3e565b5b61235988828901611e80565b9150509295509295909350565b5f6020828403121561237b5761237a611a3a565b5b5f61238884828501611a88565b91505092915050565b5f80604083850312156123a7576123a6611a3a565b5b5f6123b485828601611abb565b92505060206123c585828601611abb565b9150509250929050565b5f81905092915050565b5f6123e382611c13565b6123ed81856123cf565b93506123fd818560208601611c2d565b80840191505092915050565b7f2e6a736f6e0000000000000000000000000000000000000000000000000000005f82015250565b5f61243d6005836123cf565b915061244882612409565b600582019050919050565b5f61245e82856123d9565b915061246a82846123d9565b915061247582612431565b91508190509392505050565b5f6040820190506124945f830185612185565b6124a16020830184612185565b9392505050565b5f6040820190506124bb5f830185611b0d565b6124c86020830184611b0d565b9392505050565b7f4e487b71000000000000000000000000000000000000000000000000000000005f52603260045260245ffd5b7f4552433131353520746f6b656e2c207573652062616c616e63654f66000000005f82015250565b5f612530601c83611c1d565b915061253b826124fc565b602082019050919050565b5f6020820190508181035f83015261255d81612524565b9050919050565b7f4974656d207072696365206973206e6f742073657400000000000000000000005f82015250565b5f612598601583611c1d565b91506125a382612564565b602082019050919050565b5f6020820190508181035f8301526125c58161258c565b9050919050565b7f4e487b71000000000000000000000000000000000000000000000000000000005f52602260045260245ffd5b5f600282049050600182168061261057607f821691505b602082108103612623576126226125cc565b5b50919050565b7f4e487b71000000000000000000000000000000000000000000000000000000005f52601260045260245ffd5b5f6080820190506126695f830187612185565b6126766020830186611b0d565b6126836040830185611b0d565b6126906060830184611b0d565b95945050505050565b7f4e487b71000000000000000000000000000000000000000000000000000000005f52601160045260245ffd5b5f6126d082611a9c565b91506126db83611a9c565b92508282019050808211156126f3576126f2612699565b5b92915050565b5f6040820190508181035f8301526127118185612109565b905081810360208301526127258184612109565b90509392505050565b5f81519050919050565b5f82825260208201905092915050565b5f6127528261272e565b61275c8185612738565b935061276c818560208601611c2d565b61277581611c55565b840191505092915050565b5f60a0820190506127935f830188612185565b6127a06020830187612185565b6127ad6040830186611b0d565b6127ba6060830185611b0d565b81810360808301526127cc8184612748565b90509695505050505050565b5f815190506127e681611b60565b92915050565b5f6020828403121561280157612800611a3a565b5b5f61280e848285016127d8565b91505092915050565b5f60a08201905061282a5f830188612185565b6128376020830187612185565b81810360408301526128498186612109565b9050818103606083015261285d8185612109565b905081810360808301526128718184612748565b9050969550505050505056fea2646970667358221220aa04cd9a79d9f4032eee78f3e09ccfe6495ecdec10f0335d92e61483a218e67b64736f6c63430008180033","linkReferences":{}},"methodIdentifiers":{"STORE_ADDRESS()":"55155b1e","balanceOf(address)":"70a08231","decimals()":"313ce567","getBoughtItems(address)":"f5b2d01c","purchaseItem(uint256)":"d38ea5bf","supportsInterface(bytes4)":"01ffc9a7","symbol()":"95d89b41"},"id":21}