{"abi":[{"type":"constructor","inputs":[{"name":"_store","type":"address","internalType":"address"},{"name":"_aggregatorAddress","type":"address","internalType":"address"},{"name":"itemsIds","type":"uint256[]","internalType":"uint256[]"},{"name":"itemsPrices","type":"uint256[]","internalType":"uint256[]"},{"name":"itemsJsonUrl","type":"string","internalType":"string"}],"stateMutability":"nonpayable"},{"type":"function","name":"STORE_ADDRESS","inputs":[],"outputs":[{"name":"","type":"address","internalType":"address"}],"stateMutability":"view"},{"type":"function","name":"getBoughtItems","inputs":[{"name":"_user","type":"address","internalType":"address"}],"outputs":[{"name":"","type":"uint256[]","internalType":"uint256[]"}],"stateMutability":"view"},{"type":"function","name":"purchaseItem","inputs":[{"name":"_itemId","type":"uint256","internalType":"uint256"}],"outputs":[],"stateMutability":"payable"}],"bytecode":{"object":"0x60a060405234801562000010575f80fd5b5060405162004d7d38038062004d7d8339818101604052810190620000369190620005e3565b8473ffffffffffffffffffffffffffffffffffffffff1660808173ffffffffffffffffffffffffffffffffffffffff1681525050835f806101000a81548173ffffffffffffffffffffffffffffffffffffffff021916908373ffffffffffffffffffffffffffffffffffffffff1602179055505f835111620000ef576040517f08c379a0000000000000000000000000000000000000000000000000000000008152600401620000e69062000722565b60405180910390fd5b815183511462000136576040517f08c379a00000000000000000000000000000000000000000000000000000000081526004016200012d9062000722565b60405180910390fd5b5f8151116200017c576040517f08c379a0000000000000000000000000000000000000000000000000000000008152600401620001739062000722565b60405180910390fd5b80306040516200018c90620002e0565b620001999291906200079d565b604051809103905ff080158015620001b3573d5f803e3d5ffd5b5060015f6101000a81548173ffffffffffffffffffffffffffffffffffffffff021916908373ffffffffffffffffffffffffffffffffffffffff1602179055505f5b8351811015620002d45760015f9054906101000a900473ffffffffffffffffffffffffffffffffffffffff1673ffffffffffffffffffffffffffffffffffffffff1663f7d97577858381518110620002525762000251620007cf565b5b602002602001015185848151811062000270576200026f620007cf565b5b60200260200101516040518363ffffffff1660e01b8152600401620002979291906200080d565b5f604051808303815f87803b158015620002af575f80fd5b505af1158015620002c2573d5f803e3d5ffd5b505050508080600101915050620001f5565b50505050505062000838565b612bed806200219083390190565b5f604051905090565b5f80fd5b5f80fd5b5f73ffffffffffffffffffffffffffffffffffffffff82169050919050565b5f6200032a82620002ff565b9050919050565b6200033c816200031e565b811462000347575f80fd5b50565b5f815190506200035a8162000331565b92915050565b5f80fd5b5f601f19601f8301169050919050565b7f4e487b71000000000000000000000000000000000000000000000000000000005f52604160045260245ffd5b620003ac8262000364565b810181811067ffffffffffffffff82111715620003ce57620003cd62000374565b5b80604052505050565b5f620003e2620002ee565b9050620003f08282620003a1565b919050565b5f67ffffffffffffffff82111562000412576200041162000374565b5b602082029050602081019050919050565b5f80fd5b5f819050919050565b6200043b8162000427565b811462000446575f80fd5b50565b5f81519050620004598162000430565b92915050565b5f620004756200046f84620003f5565b620003d7565b905080838252602082019050602084028301858111156200049b576200049a62000423565b5b835b81811015620004c85780620004b3888262000449565b8452602084019350506020810190506200049d565b5050509392505050565b5f82601f830112620004e957620004e862000360565b5b8151620004fb8482602086016200045f565b91505092915050565b5f80fd5b5f67ffffffffffffffff82111562000525576200052462000374565b5b620005308262000364565b9050602081019050919050565b5f5b838110156200055c5780820151818401526020810190506200053f565b5f8484015250505050565b5f6200057d620005778462000508565b620003d7565b9050828152602081018484840111156200059c576200059b62000504565b5b620005a98482856200053d565b509392505050565b5f82601f830112620005c857620005c762000360565b5b8151620005da84826020860162000567565b91505092915050565b5f805f805f60a08688031215620005ff57620005fe620002f7565b5b5f6200060e888289016200034a565b955050602062000621888289016200034a565b945050604086015167ffffffffffffffff811115620006455762000644620002fb565b5b6200065388828901620004d2565b935050606086015167ffffffffffffffff811115620006775762000676620002fb565b5b6200068588828901620004d2565b925050608086015167ffffffffffffffff811115620006a957620006a8620002fb565b5b620006b788828901620005b1565b9150509295509295909350565b5f82825260208201905092915050565b7f496e76616c696420636f6e7374727563746f7220706172616d730000000000005f82015250565b5f6200070a601a83620006c4565b91506200071782620006d4565b602082019050919050565b5f6020820190508181035f8301526200073b81620006fc565b9050919050565b5f81519050919050565b5f620007588262000742565b620007648185620006c4565b9350620007768185602086016200053d565b620007818162000364565b840191505092915050565b62000797816200031e565b82525050565b5f6040820190508181035f830152620007b781856200074c565b9050620007c860208301846200078c565b9392505050565b7f4e487b71000000000000000000000000000000000000000000000000000000005f52603260045260245ffd5b620008078162000427565b82525050565b5f604082019050620008225f830185620007fc565b620008316020830184620007fc565b9392505050565b608051611939620008575f395f818160bb015261043401526119395ff3fe608060405260043610610033575f3560e01c806355155b1e14610037578063d38ea5bf14610061578063f5b2d01c1461007d575b5f80fd5b348015610042575f80fd5b5061004b6100b9565b6040516100589190610c4d565b60405180910390f35b61007b60048036038101906100769190610caa565b6100dd565b005b348015610088575f80fd5b506100a3600480360381019061009e9190610cff565b61064d565b6040516100b09190610de1565b60405180910390f35b7f000000000000000000000000000000000000000000000000000000000000000081565b5f60015f9054906101000a900473ffffffffffffffffffffffffffffffffffffffff1673ffffffffffffffffffffffffffffffffffffffff1663b9186d7d836040518263ffffffff1660e01b81526004016101389190610e10565b602060405180830381865afa158015610153573d5f803e3d5ffd5b505050506040513d601f19601f820116820180604052508101906101779190610e3d565b90505f81036101bb576040517f08c379a00000000000000000000000000000000000000000000000000000000081526004016101b290610ec2565b60405180910390fd5b6101fa6040518060400160405280602081526020017f43757272656e74206974656d20707269636520696e207573642063656e74733a815250826109b2565b5f610203610a4e565b90505f811215610248576040517f08c379a000000000000000000000000000000000000000000000000000000000815260040161023f90610f2a565b60405180910390fd5b5f81905061028b6040518060400160405280601681526020017f43757272656e7420507269636520534f4c2f5553443a00000000000000000000815250826109b2565b5f805f9054906101000a900473ffffffffffffffffffffffffffffffffffffffff1673ffffffffffffffffffffffffffffffffffffffff1663313ce5676040518163ffffffff1660e01b8152600401602060405180830381865afa1580156102f5573d5f803e3d5ffd5b505050506040513d601f19601f820116820180604052508101906103199190610f7e565b60ff16905061035d6040518060400160405280600c81526020017f446563696d616c733a2025730000000000000000000000000000000000000000815250826109b2565b5f600990505f606483600a6103729190611105565b83600a61037f9190611105565b8861038a919061114f565b610394919061114f565b61039e91906111bd565b90505f84826103ad91906111bd565b90506103ee6040518060400160405280601681526020017f4974656d20707269636520696e20534f4c207765693a00000000000000000000815250826109b2565b80341015610431576040517f08c379a000000000000000000000000000000000000000000000000000000000815260040161042890611237565b60405180910390fd5b5f7f000000000000000000000000000000000000000000000000000000000000000073ffffffffffffffffffffffffffffffffffffffff168260405161047690611282565b5f6040518083038185875af1925050503d805f81146104b0576040519150601f19603f3d011682016040523d82523d5f602084013e6104b5565b606091505b50509050806104f9576040517f08c379a00000000000000000000000000000000000000000000000000000000081526004016104f090610ec2565b60405180910390fd5b60015f9054906101000a900473ffffffffffffffffffffffffffffffffffffffff1673ffffffffffffffffffffffffffffffffffffffff1663731133e9338b60016040518463ffffffff1660e01b815260040161055893929190611308565b5f604051808303815f87803b15801561056f575f80fd5b505af1158015610581573d5f803e3d5ffd5b5050505081341115610642575f3373ffffffffffffffffffffffffffffffffffffffff1683346105b19190611350565b6040516105bd90611282565b5f6040518083038185875af1925050503d805f81146105f7576040519150601f19603f3d011682016040523d82523d5f602084013e6105fc565b606091505b5050905080610640576040517f08c379a0000000000000000000000000000000000000000000000000000000008152600401610637906113cd565b60405180910390fd5b505b505050505050505050565b60605f73ffffffffffffffffffffffffffffffffffffffff168273ffffffffffffffffffffffffffffffffffffffff16036106d2575f67ffffffffffffffff81111561069c5761069b6113eb565b5b6040519080825280602002602001820160405280156106ca5781602001602082028036833780820191505090505b5090506109ad565b5f60015f9054906101000a900473ffffffffffffffffffffffffffffffffffffffff1673ffffffffffffffffffffffffffffffffffffffff1663c06fad066040518163ffffffff1660e01b81526004015f60405180830381865afa15801561073c573d5f803e3d5ffd5b505050506040513d5f823e3d601f19601f82011682018060405250810190610764919061153b565b90505f805b8251811015610851575f83828151811061078657610785611582565b5b602002602001015190505f60015f9054906101000a900473ffffffffffffffffffffffffffffffffffffffff1673ffffffffffffffffffffffffffffffffffffffff1662fdd58e88846040518363ffffffff1660e01b81526004016107ec9291906115af565b602060405180830381865afa158015610807573d5f803e3d5ffd5b505050506040513d601f19601f8201168201806040525081019061082b9190610e3d565b90505f811115610844578380610840906115d6565b9450505b5050806001019050610769565b505f8167ffffffffffffffff81111561086d5761086c6113eb565b5b60405190808252806020026020018201604052801561089b5781602001602082028036833780820191505090505b5090505f805b84518110156109a4575f8582815181106108be576108bd611582565b5b602002602001015190505f60015f9054906101000a900473ffffffffffffffffffffffffffffffffffffffff1673ffffffffffffffffffffffffffffffffffffffff1662fdd58e8a846040518363ffffffff1660e01b81526004016109249291906115af565b602060405180830381865afa15801561093f573d5f803e3d5ffd5b505050506040513d601f19601f820116820180604052508101906109639190610e3d565b1115610998578084848151811061097d5761097c611582565b5b6020026020010181815250508280610994906115d6565b9350505b508060010190506108a1565b50819450505050505b919050565b610a4a82826040516024016109c8929190611687565b6040516020818303038152906040527fb60e72cc000000000000000000000000000000000000000000000000000000007bffffffffffffffffffffffffffffffffffffffffffffffffffffffff19166020820180517bffffffffffffffffffffffffffffffffffffffffffffffffffffffff8381831617835250505050610bc0565b5050565b5f805f805f9054906101000a900473ffffffffffffffffffffffffffffffffffffffff1673ffffffffffffffffffffffffffffffffffffffff1663feaf968c6040518163ffffffff1660e01b815260040160a060405180830381865afa158015610aba573d5f803e3d5ffd5b505050506040513d601f19601f82011682018060405250810190610ade9190611727565b509350509250505f8213610b27576040517f08c379a0000000000000000000000000000000000000000000000000000000008152600401610b1e906117e8565b60405180910390fd5b5f8103610b69576040517f08c379a0000000000000000000000000000000000000000000000000000000008152600401610b6090611850565b60405180910390fd5b610e108142610b789190611350565b10610bb8576040517f08c379a0000000000000000000000000000000000000000000000000000000008152600401610baf906118b8565b60405180910390fd5b819250505090565b610bd781610bcf610bda610bf9565b63ffffffff16565b50565b5f6a636f6e736f6c652e6c6f6790505f80835160208501845afa505050565b610c04819050919050565b610c0c6118d6565b565b5f73ffffffffffffffffffffffffffffffffffffffff82169050919050565b5f610c3782610c0e565b9050919050565b610c4781610c2d565b82525050565b5f602082019050610c605f830184610c3e565b92915050565b5f604051905090565b5f80fd5b5f80fd5b5f819050919050565b610c8981610c77565b8114610c93575f80fd5b50565b5f81359050610ca481610c80565b92915050565b5f60208284031215610cbf57610cbe610c6f565b5b5f610ccc84828501610c96565b91505092915050565b610cde81610c2d565b8114610ce8575f80fd5b50565b5f81359050610cf981610cd5565b92915050565b5f60208284031215610d1457610d13610c6f565b5b5f610d2184828501610ceb565b91505092915050565b5f81519050919050565b5f82825260208201905092915050565b5f819050602082019050919050565b610d5c81610c77565b82525050565b5f610d6d8383610d53565b60208301905092915050565b5f602082019050919050565b5f610d8f82610d2a565b610d998185610d34565b9350610da483610d44565b805f5b83811015610dd4578151610dbb8882610d62565b9750610dc683610d79565b925050600181019050610da7565b5085935050505092915050565b5f6020820190508181035f830152610df98184610d85565b905092915050565b610e0a81610c77565b82525050565b5f602082019050610e235f830184610e01565b92915050565b5f81519050610e3781610c80565b92915050565b5f60208284031215610e5257610e51610c6f565b5b5f610e5f84828501610e29565b91505092915050565b5f82825260208201905092915050565b7f5472616e73666572206661696c656400000000000000000000000000000000005f82015250565b5f610eac600f83610e68565b9150610eb782610e78565b602082019050919050565b5f6020820190508181035f830152610ed981610ea0565b9050919050565b7f5072696365206d757374206265206e6f6e6e65676174697665000000000000005f82015250565b5f610f14601983610e68565b9150610f1f82610ee0565b602082019050919050565b5f6020820190508181035f830152610f4181610f08565b9050919050565b5f60ff82169050919050565b610f5d81610f48565b8114610f67575f80fd5b50565b5f81519050610f7881610f54565b92915050565b5f60208284031215610f9357610f92610c6f565b5b5f610fa084828501610f6a565b91505092915050565b7f4e487b71000000000000000000000000000000000000000000000000000000005f52601160045260245ffd5b5f8160011c9050919050565b5f808291508390505b600185111561102b5780860481111561100757611006610fa9565b5b60018516156110165780820291505b808102905061102485610fd6565b9450610feb565b94509492505050565b5f8261104357600190506110fe565b81611050575f90506110fe565b816001811461106657600281146110705761109f565b60019150506110fe565b60ff84111561108257611081610fa9565b5b8360020a91508482111561109957611098610fa9565b5b506110fe565b5060208310610133831016604e8410600b84101617156110d45782820a9050838111156110cf576110ce610fa9565b5b6110fe565b6110e18484846001610fe2565b925090508184048111156110f8576110f7610fa9565b5b81810290505b9392505050565b5f61110f82610c77565b915061111a83610c77565b92506111477fffffffffffffffffffffffffffffffffffffffffffffffffffffffffffffffff8484611034565b905092915050565b5f61115982610c77565b915061116483610c77565b925082820261117281610c77565b9150828204841483151761118957611188610fa9565b5b5092915050565b7f4e487b71000000000000000000000000000000000000000000000000000000005f52601260045260245ffd5b5f6111c782610c77565b91506111d283610c77565b9250826111e2576111e1611190565b5b828204905092915050565b7f496e73756666696369656e742066756e647300000000000000000000000000005f82015250565b5f611221601283610e68565b915061122c826111ed565b602082019050919050565b5f6020820190508181035f83015261124e81611215565b9050919050565b5f81905092915050565b50565b5f61126d5f83611255565b91506112788261125f565b5f82019050919050565b5f61128c82611262565b9150819050919050565b5f819050919050565b5f819050919050565b5f6112c26112bd6112b884611296565b61129f565b610c77565b9050919050565b6112d2816112a8565b82525050565b5f82825260208201905092915050565b5f6112f35f836112d8565b91506112fe8261125f565b5f82019050919050565b5f60808201905061131b5f830186610c3e565b6113286020830185610e01565b61133560408301846112c9565b8181036060830152611346816112e8565b9050949350505050565b5f61135a82610c77565b915061136583610c77565b925082820390508181111561137d5761137c610fa9565b5b92915050565b7f526566756e64206661696c6564000000000000000000000000000000000000005f82015250565b5f6113b7600d83610e68565b91506113c282611383565b602082019050919050565b5f6020820190508181035f8301526113e4816113ab565b9050919050565b7f4e487b71000000000000000000000000000000000000000000000000000000005f52604160045260245ffd5b5f80fd5b5f601f19601f8301169050919050565b6114358261141c565b810181811067ffffffffffffffff82111715611454576114536113eb565b5b80604052505050565b5f611466610c66565b9050611472828261142c565b919050565b5f67ffffffffffffffff821115611491576114906113eb565b5b602082029050602081019050919050565b5f80fd5b5f6114b86114b384611477565b61145d565b905080838252602082019050602084028301858111156114db576114da6114a2565b5b835b8181101561150457806114f08882610e29565b8452602084019350506020810190506114dd565b5050509392505050565b5f82601f83011261152257611521611418565b5b81516115328482602086016114a6565b91505092915050565b5f602082840312156115505761154f610c6f565b5b5f82015167ffffffffffffffff81111561156d5761156c610c73565b5b6115798482850161150e565b91505092915050565b7f4e487b71000000000000000000000000000000000000000000000000000000005f52603260045260245ffd5b5f6040820190506115c25f830185610c3e565b6115cf6020830184610e01565b9392505050565b5f6115e082610c77565b91507fffffffffffffffffffffffffffffffffffffffffffffffffffffffffffffffff820361161257611611610fa9565b5b600182019050919050565b5f81519050919050565b5f5b83811015611644578082015181840152602081019050611629565b5f8484015250505050565b5f6116598261161d565b6116638185610e68565b9350611673818560208601611627565b61167c8161141c565b840191505092915050565b5f6040820190508181035f83015261169f818561164f565b90506116ae6020830184610e01565b9392505050565b5f69ffffffffffffffffffff82169050919050565b6116d3816116b5565b81146116dd575f80fd5b50565b5f815190506116ee816116ca565b92915050565b5f819050919050565b611706816116f4565b8114611710575f80fd5b50565b5f81519050611721816116fd565b92915050565b5f805f805f60a086880312156117405761173f610c6f565b5b5f61174d888289016116e0565b955050602061175e88828901611713565b945050604061176f88828901610e29565b935050606061178088828901610e29565b9250506080611791888289016116e0565b9150509295509295909350565b7f496e76616c6964207072696365000000000000000000000000000000000000005f82015250565b5f6117d2600d83610e68565b91506117dd8261179e565b602082019050919050565b5f6020820190508181035f8301526117ff816117c6565b9050919050565b7f526f756e64206e6f7420636f6d706c65746500000000000000000000000000005f82015250565b5f61183a601283610e68565b915061184582611806565b602082019050919050565b5f6020820190508181035f8301526118678161182e565b9050919050565b7f5374616c652070726963650000000000000000000000000000000000000000005f82015250565b5f6118a2600b83610e68565b91506118ad8261186e565b602082019050919050565b5f6020820190508181035f8301526118cf81611896565b9050919050565b7f4e487b71000000000000000000000000000000000000000000000000000000005f52605160045260245ffdfea264697066735822122033bf968eea6d4b1e93896defbe472dc187bacfb1220273690383b5b69e7931e664736f6c63430008180033608060405234801562000010575f80fd5b5060405162002bed38038062002bed833981810160405281019062000036919062000395565b80826200004981620000d760201b60201c565b505f73ffffffffffffffffffffffffffffffffffffffff168173ffffffffffffffffffffffffffffffffffffffff1603620000bd575f6040517f1e4fbdf7000000000000000000000000000000000000000000000000000000008152600401620000b491906200040a565b60405180910390fd5b620000ce81620000ec60201b60201c565b50505062000740565b8060029081620000e891906200065c565b5050565b5f60035f9054906101000a900473ffffffffffffffffffffffffffffffffffffffff1690508160035f6101000a81548173ffffffffffffffffffffffffffffffffffffffff021916908373ffffffffffffffffffffffffffffffffffffffff1602179055508173ffffffffffffffffffffffffffffffffffffffff168173ffffffffffffffffffffffffffffffffffffffff167f8be0079c531659141344cd1fd0a4f28419497f9722a3daafe3b4186f6b6457e060405160405180910390a35050565b5f604051905090565b5f80fd5b5f80fd5b5f80fd5b5f80fd5b5f601f19601f8301169050919050565b7f4e487b71000000000000000000000000000000000000000000000000000000005f52604160045260245ffd5b6200021082620001c8565b810181811067ffffffffffffffff82111715620002325762000231620001d8565b5b80604052505050565b5f62000246620001af565b905062000254828262000205565b919050565b5f67ffffffffffffffff821115620002765762000275620001d8565b5b6200028182620001c8565b9050602081019050919050565b5f5b83811015620002ad57808201518184015260208101905062000290565b5f8484015250505050565b5f620002ce620002c88462000259565b6200023b565b905082815260208101848484011115620002ed57620002ec620001c4565b5b620002fa8482856200028e565b509392505050565b5f82601f830112620003195762000318620001c0565b5b81516200032b848260208601620002b8565b91505092915050565b5f73ffffffffffffffffffffffffffffffffffffffff82169050919050565b5f6200035f8262000334565b9050919050565b620003718162000353565b81146200037c575f80fd5b50565b5f815190506200038f8162000366565b92915050565b5f8060408385031215620003ae57620003ad620001b8565b5b5f83015167ffffffffffffffff811115620003ce57620003cd620001bc565b5b620003dc8582860162000302565b9250506020620003ef858286016200037f565b9150509250929050565b620004048162000353565b82525050565b5f6020820190506200041f5f830184620003f9565b92915050565b5f81519050919050565b7f4e487b71000000000000000000000000000000000000000000000000000000005f52602260045260245ffd5b5f60028204905060018216806200047457607f821691505b6020821081036200048a57620004896200042f565b5b50919050565b5f819050815f5260205f209050919050565b5f6020601f8301049050919050565b5f82821b905092915050565b5f60088302620004ee7fffffffffffffffffffffffffffffffffffffffffffffffffffffffffffffffff82620004b1565b620004fa8683620004b1565b95508019841693508086168417925050509392505050565b5f819050919050565b5f819050919050565b5f620005446200053e620005388462000512565b6200051b565b62000512565b9050919050565b5f819050919050565b6200055f8362000524565b620005776200056e826200054b565b848454620004bd565b825550505050565b5f90565b6200058d6200057f565b6200059a81848462000554565b505050565b5b81811015620005c157620005b55f8262000583565b600181019050620005a0565b5050565b601f8211156200061057620005da8162000490565b620005e584620004a2565b81016020851015620005f5578190505b6200060d6200060485620004a2565b8301826200059f565b50505b505050565b5f82821c905092915050565b5f620006325f198460080262000615565b1980831691505092915050565b5f6200064c838362000621565b9150826002028217905092915050565b620006678262000425565b67ffffffffffffffff811115620006835762000682620001d8565b5b6200068f82546200045c565b6200069c828285620005c5565b5f60209050601f831160018114620006d2575f8415620006bd578287015190505b620006c985826200063f565b86555062000738565b601f198416620006e28662000490565b5f5b828110156200070b57848901518255600182019150602085019450602081019050620006e4565b868310156200072b578489015162000727601f89168262000621565b8355505b6001600288020188555050505b505050505050565b61249f806200074e5f395ff3fe608060405234801561000f575f80fd5b50600436106100f2575f3560e01c80638da5cb5b11610095578063e985e9c511610064578063e985e9c514610280578063f242432a146102b0578063f2fde38b146102cc578063f7d97577146102e8576100f2565b80638da5cb5b146101f8578063a22cb46514610216578063b9186d7d14610232578063c06fad0614610262576100f2565b80632eb2c2d6116100d15780632eb2c2d6146101865780634e1273f4146101a2578063715018a6146101d2578063731133e9146101dc576100f2565b8062fdd58e146100f657806301ffc9a7146101265780630e89341c14610156575b5f80fd5b610110600480360381019061010b9190611802565b610304565b60405161011d919061184f565b60405180910390f35b610140600480360381019061013b91906118bd565b610359565b60405161014d9190611902565b60405180910390f35b610170600480360381019061016b919061191b565b61043a565b60405161017d91906119d0565b60405180910390f35b6101a0600480360381019061019b9190611be0565b6104cc565b005b6101bc60048036038101906101b79190611d6b565b610573565b6040516101c99190611e98565b60405180910390f35b6101da61067a565b005b6101f660048036038101906101f19190611eb8565b61068d565b005b6102006106fa565b60405161020d9190611f47565b60405180910390f35b610230600480360381019061022b9190611f8a565b610722565b005b61024c6004803603810190610247919061191b565b610738565b604051610259919061184f565b60405180910390f35b61026a610752565b6040516102779190611e98565b60405180910390f35b61029a60048036038101906102959190611fc8565b6107a8565b6040516102a79190611902565b60405180910390f35b6102ca60048036038101906102c59190612006565b610836565b005b6102e660048036038101906102e19190612099565b6108dd565b005b61030260048036038101906102fd91906120c4565b610961565b005b5f805f8381526020019081526020015f205f8473ffffffffffffffffffffffffffffffffffffffff1673ffffffffffffffffffffffffffffffffffffffff1681526020019081526020015f2054905092915050565b5f7fd9b67a26000000000000000000000000000000000000000000000000000000007bffffffffffffffffffffffffffffffffffffffffffffffffffffffff1916827bffffffffffffffffffffffffffffffffffffffffffffffffffffffff1916148061042357507f0e89341c000000000000000000000000000000000000000000000000000000007bffffffffffffffffffffffffffffffffffffffffffffffffffffffff1916827bffffffffffffffffffffffffffffffffffffffffffffffffffffffff1916145b806104335750610432826109c2565b5b9050919050565b6060600280546104499061212f565b80601f01602080910402602001604051908101604052809291908181526020018280546104759061212f565b80156104c05780601f10610497576101008083540402835291602001916104c0565b820191905f5260205f20905b8154815290600101906020018083116104a357829003601f168201915b50505050509050919050565b5f6104d5610a2b565b90508073ffffffffffffffffffffffffffffffffffffffff168673ffffffffffffffffffffffffffffffffffffffff161415801561051a575061051886826107a8565b155b1561055e5780866040517fe237d92200000000000000000000000000000000000000000000000000000000815260040161055592919061215f565b60405180910390fd5b61056b8686868686610a32565b505050505050565b606081518351146105bf57815183516040517f5b0599910000000000000000000000000000000000000000000000000000000081526004016105b6929190612186565b60405180910390fd5b5f835167ffffffffffffffff8111156105db576105da6119f4565b5b6040519080825280602002602001820160405280156106095781602001602082028036833780820191505090505b5090505f5b845181101561066f5761064561062d8287610b2690919063ffffffff16565b6106408387610b3990919063ffffffff16565b610304565b828281518110610658576106576121ad565b5b60200260200101818152505080600101905061060e565b508091505092915050565b610682610b4c565b61068b5f610bd3565b565b610695610b4c565b5f60055f8581526020019081526020015f2054036106e8576040517f08c379a00000000000000000000000000000000000000000000000000000000081526004016106df90612224565b60405180910390fd5b6106f484848484610c96565b50505050565b5f60035f9054906101000a900473ffffffffffffffffffffffffffffffffffffffff16905090565b61073461072d610a2b565b8383610d2b565b5050565b5f60055f8381526020019081526020015f20549050919050565b6060600480548060200260200160405190810160405280929190818152602001828054801561079e57602002820191905f5260205f20905b81548152602001906001019080831161078a575b5050505050905090565b5f60015f8473ffffffffffffffffffffffffffffffffffffffff1673ffffffffffffffffffffffffffffffffffffffff1681526020019081526020015f205f8373ffffffffffffffffffffffffffffffffffffffff1673ffffffffffffffffffffffffffffffffffffffff1681526020019081526020015f205f9054906101000a900460ff16905092915050565b5f61083f610a2b565b90508073ffffffffffffffffffffffffffffffffffffffff168673ffffffffffffffffffffffffffffffffffffffff1614158015610884575061088286826107a8565b155b156108c85780866040517fe237d9220000000000000000000000000000000000000000000000000000000081526004016108bf92919061215f565b60405180910390fd5b6108d58686868686610e94565b505050505050565b6108e5610b4c565b5f73ffffffffffffffffffffffffffffffffffffffff168173ffffffffffffffffffffffffffffffffffffffff1603610955575f6040517f1e4fbdf700000000000000000000000000000000000000000000000000000000815260040161094c9190611f47565b60405180910390fd5b61095e81610bd3565b50565b610969610b4c565b5f60055f8481526020019081526020015f2054036109a857600482908060018154018082558091505060019003905f5260205f20015f90919091909150555b8060055f8481526020019081526020015f20819055505050565b5f7f01ffc9a7000000000000000000000000000000000000000000000000000000007bffffffffffffffffffffffffffffffffffffffffffffffffffffffff1916827bffffffffffffffffffffffffffffffffffffffffffffffffffffffff1916149050919050565b5f33905090565b5f73ffffffffffffffffffffffffffffffffffffffff168473ffffffffffffffffffffffffffffffffffffffff1603610aa2575f6040517f57f447ce000000000000000000000000000000000000000000000000000000008152600401610a999190611f47565b60405180910390fd5b5f73ffffffffffffffffffffffffffffffffffffffff168573ffffffffffffffffffffffffffffffffffffffff1603610b12575f6040517f01a83514000000000000000000000000000000000000000000000000000000008152600401610b099190611f47565b60405180910390fd5b610b1f8585858585610f9a565b5050505050565b5f60208202602084010151905092915050565b5f60208202602084010151905092915050565b610b54610a2b565b73ffffffffffffffffffffffffffffffffffffffff16610b726106fa565b73ffffffffffffffffffffffffffffffffffffffff1614610bd157610b95610a2b565b6040517f118cdaa7000000000000000000000000000000000000000000000000000000008152600401610bc89190611f47565b60405180910390fd5b565b5f60035f9054906101000a900473ffffffffffffffffffffffffffffffffffffffff1690508160035f6101000a81548173ffffffffffffffffffffffffffffffffffffffff021916908373ffffffffffffffffffffffffffffffffffffffff1602179055508173ffffffffffffffffffffffffffffffffffffffff168173ffffffffffffffffffffffffffffffffffffffff167f8be0079c531659141344cd1fd0a4f28419497f9722a3daafe3b4186f6b6457e060405160405180910390a35050565b5f73ffffffffffffffffffffffffffffffffffffffff168473ffffffffffffffffffffffffffffffffffffffff1603610d06575f6040517f57f447ce000000000000000000000000000000000000000000000000000000008152600401610cfd9190611f47565b60405180910390fd5b5f80610d128585611046565b91509150610d235f87848487610f9a565b505050505050565b5f73ffffffffffffffffffffffffffffffffffffffff168273ffffffffffffffffffffffffffffffffffffffff1603610d9b575f6040517fced3e100000000000000000000000000000000000000000000000000000000008152600401610d929190611f47565b60405180910390fd5b8060015f8573ffffffffffffffffffffffffffffffffffffffff1673ffffffffffffffffffffffffffffffffffffffff1681526020019081526020015f205f8473ffffffffffffffffffffffffffffffffffffffff1673ffffffffffffffffffffffffffffffffffffffff1681526020019081526020015f205f6101000a81548160ff0219169083151502179055508173ffffffffffffffffffffffffffffffffffffffff168373ffffffffffffffffffffffffffffffffffffffff167f17307eab39ab6107e8899845ad3d59bd9653f200f220920489ca2b5937696c3183604051610e879190611902565b60405180910390a3505050565b5f73ffffffffffffffffffffffffffffffffffffffff168473ffffffffffffffffffffffffffffffffffffffff1603610f04575f6040517f57f447ce000000000000000000000000000000000000000000000000000000008152600401610efb9190611f47565b60405180910390fd5b5f73ffffffffffffffffffffffffffffffffffffffff168573ffffffffffffffffffffffffffffffffffffffff1603610f74575f6040517f01a83514000000000000000000000000000000000000000000000000000000008152600401610f6b9190611f47565b60405180910390fd5b5f80610f808585611046565b91509150610f918787848487610f9a565b50505050505050565b610fa685858585611076565b5f73ffffffffffffffffffffffffffffffffffffffff168473ffffffffffffffffffffffffffffffffffffffff161461103f575f610fe2610a2b565b9050600184510361102e575f6110015f86610b3990919063ffffffff16565b90505f6110175f86610b3990919063ffffffff16565b9050611027838989858589611406565b505061103d565b61103c8187878787876115b5565b5b505b5050505050565b60608060405191506001825283602083015260408201905060018152826020820152604081016040529250929050565b80518251146110c057815181516040517f5b0599910000000000000000000000000000000000000000000000000000000081526004016110b7929190612186565b60405180910390fd5b5f6110c9610a2b565b90505f5b83518110156112c5575f6110ea8286610b3990919063ffffffff16565b90505f6111008386610b3990919063ffffffff16565b90505f73ffffffffffffffffffffffffffffffffffffffff168873ffffffffffffffffffffffffffffffffffffffff1614611223575f805f8481526020019081526020015f205f8a73ffffffffffffffffffffffffffffffffffffffff1673ffffffffffffffffffffffffffffffffffffffff1681526020019081526020015f20549050818110156111cf57888183856040517f03dee4c50000000000000000000000000000000000000000000000000000000081526004016111c69493929190612242565b60405180910390fd5b8181035f808581526020019081526020015f205f8b73ffffffffffffffffffffffffffffffffffffffff1673ffffffffffffffffffffffffffffffffffffffff1681526020019081526020015f2081905550505b5f73ffffffffffffffffffffffffffffffffffffffff168773ffffffffffffffffffffffffffffffffffffffff16146112b857805f808481526020019081526020015f205f8973ffffffffffffffffffffffffffffffffffffffff1673ffffffffffffffffffffffffffffffffffffffff1681526020019081526020015f205f8282546112b091906122b2565b925050819055505b50508060010190506110cd565b506001835103611380575f6112e35f85610b3990919063ffffffff16565b90505f6112f95f85610b3990919063ffffffff16565b90508573ffffffffffffffffffffffffffffffffffffffff168773ffffffffffffffffffffffffffffffffffffffff168473ffffffffffffffffffffffffffffffffffffffff167fc3d58168c5ae7397731d063d5bbf3d657854427343f4c083240f7aacaa2d0f628585604051611371929190612186565b60405180910390a450506113ff565b8373ffffffffffffffffffffffffffffffffffffffff168573ffffffffffffffffffffffffffffffffffffffff168273ffffffffffffffffffffffffffffffffffffffff167f4a39dc06d4c0dbc64b70af90fd698a233a518aa5d07e595d983b8c0526c8f7fb86866040516113f69291906122e5565b60405180910390a45b5050505050565b5f8473ffffffffffffffffffffffffffffffffffffffff163b11156115ad578373ffffffffffffffffffffffffffffffffffffffff1663f23a6e6187878686866040518663ffffffff1660e01b815260040161146695949392919061236c565b6020604051808303815f875af19250505080156114a157506040513d601f19601f8201168201806040525081019061149e91906123d8565b60015b611522573d805f81146114cf576040519150601f19603f3d011682016040523d82523d5f602084013e6114d4565b606091505b505f81510361151a57846040517f57f447ce0000000000000000000000000000000000000000000000000000000081526004016115119190611f47565b60405180910390fd5b805160208201fd5b63f23a6e6160e01b7bffffffffffffffffffffffffffffffffffffffffffffffffffffffff1916817bffffffffffffffffffffffffffffffffffffffffffffffffffffffff1916146115ab57846040517f57f447ce0000000000000000000000000000000000000000000000000000000081526004016115a29190611f47565b60405180910390fd5b505b505050505050565b5f8473ffffffffffffffffffffffffffffffffffffffff163b111561175c578373ffffffffffffffffffffffffffffffffffffffff1663bc197c8187878686866040518663ffffffff1660e01b8152600401611615959493929190612403565b6020604051808303815f875af192505050801561165057506040513d601f19601f8201168201806040525081019061164d91906123d8565b60015b6116d1573d805f811461167e576040519150601f19603f3d011682016040523d82523d5f602084013e611683565b606091505b505f8151036116c957846040517f57f447ce0000000000000000000000000000000000000000000000000000000081526004016116c09190611f47565b60405180910390fd5b805160208201fd5b63bc197c8160e01b7bffffffffffffffffffffffffffffffffffffffffffffffffffffffff1916817bffffffffffffffffffffffffffffffffffffffffffffffffffffffff19161461175a57846040517f57f447ce0000000000000000000000000000000000000000000000000000000081526004016117519190611f47565b60405180910390fd5b505b505050505050565b5f604051905090565b5f80fd5b5f80fd5b5f73ffffffffffffffffffffffffffffffffffffffff82169050919050565b5f61179e82611775565b9050919050565b6117ae81611794565b81146117b8575f80fd5b50565b5f813590506117c9816117a5565b92915050565b5f819050919050565b6117e1816117cf565b81146117eb575f80fd5b50565b5f813590506117fc816117d8565b92915050565b5f80604083850312156118185761181761176d565b5b5f611825858286016117bb565b9250506020611836858286016117ee565b9150509250929050565b611849816117cf565b82525050565b5f6020820190506118625f830184611840565b92915050565b5f7fffffffff0000000000000000000000000000000000000000000000000000000082169050919050565b61189c81611868565b81146118a6575f80fd5b50565b5f813590506118b781611893565b92915050565b5f602082840312156118d2576118d161176d565b5b5f6118df848285016118a9565b91505092915050565b5f8115159050919050565b6118fc816118e8565b82525050565b5f6020820190506119155f8301846118f3565b92915050565b5f602082840312156119305761192f61176d565b5b5f61193d848285016117ee565b91505092915050565b5f81519050919050565b5f82825260208201905092915050565b5f5b8381101561197d578082015181840152602081019050611962565b5f8484015250505050565b5f601f19601f8301169050919050565b5f6119a282611946565b6119ac8185611950565b93506119bc818560208601611960565b6119c581611988565b840191505092915050565b5f6020820190508181035f8301526119e88184611998565b905092915050565b5f80fd5b7f4e487b71000000000000000000000000000000000000000000000000000000005f52604160045260245ffd5b611a2a82611988565b810181811067ffffffffffffffff82111715611a4957611a486119f4565b5b80604052505050565b5f611a5b611764565b9050611a678282611a21565b919050565b5f67ffffffffffffffff821115611a8657611a856119f4565b5b602082029050602081019050919050565b5f80fd5b5f611aad611aa884611a6c565b611a52565b90508083825260208201905060208402830185811115611ad057611acf611a97565b5b835b81811015611af95780611ae588826117ee565b845260208401935050602081019050611ad2565b5050509392505050565b5f82601f830112611b1757611b166119f0565b5b8135611b27848260208601611a9b565b91505092915050565b5f80fd5b5f67ffffffffffffffff821115611b4e57611b4d6119f4565b5b611b5782611988565b9050602081019050919050565b828183375f83830152505050565b5f611b84611b7f84611b34565b611a52565b905082815260208101848484011115611ba057611b9f611b30565b5b611bab848285611b64565b509392505050565b5f82601f830112611bc757611bc66119f0565b5b8135611bd7848260208601611b72565b91505092915050565b5f805f805f60a08688031215611bf957611bf861176d565b5b5f611c06888289016117bb565b9550506020611c17888289016117bb565b945050604086013567ffffffffffffffff811115611c3857611c37611771565b5b611c4488828901611b03565b935050606086013567ffffffffffffffff811115611c6557611c64611771565b5b611c7188828901611b03565b925050608086013567ffffffffffffffff811115611c9257611c91611771565b5b611c9e88828901611bb3565b9150509295509295909350565b5f67ffffffffffffffff821115611cc557611cc46119f4565b5b602082029050602081019050919050565b5f611ce8611ce384611cab565b611a52565b90508083825260208201905060208402830185811115611d0b57611d0a611a97565b5b835b81811015611d345780611d2088826117bb565b845260208401935050602081019050611d0d565b5050509392505050565b5f82601f830112611d5257611d516119f0565b5b8135611d62848260208601611cd6565b91505092915050565b5f8060408385031215611d8157611d8061176d565b5b5f83013567ffffffffffffffff811115611d9e57611d9d611771565b5b611daa85828601611d3e565b925050602083013567ffffffffffffffff811115611dcb57611dca611771565b5b611dd785828601611b03565b9150509250929050565b5f81519050919050565b5f82825260208201905092915050565b5f819050602082019050919050565b611e13816117cf565b82525050565b5f611e248383611e0a565b60208301905092915050565b5f602082019050919050565b5f611e4682611de1565b611e508185611deb565b9350611e5b83611dfb565b805f5b83811015611e8b578151611e728882611e19565b9750611e7d83611e30565b925050600181019050611e5e565b5085935050505092915050565b5f6020820190508181035f830152611eb08184611e3c565b905092915050565b5f805f8060808587031215611ed057611ecf61176d565b5b5f611edd878288016117bb565b9450506020611eee878288016117ee565b9350506040611eff878288016117ee565b925050606085013567ffffffffffffffff811115611f2057611f1f611771565b5b611f2c87828801611bb3565b91505092959194509250565b611f4181611794565b82525050565b5f602082019050611f5a5f830184611f38565b92915050565b611f69816118e8565b8114611f73575f80fd5b50565b5f81359050611f8481611f60565b92915050565b5f8060408385031215611fa057611f9f61176d565b5b5f611fad858286016117bb565b9250506020611fbe85828601611f76565b9150509250929050565b5f8060408385031215611fde57611fdd61176d565b5b5f611feb858286016117bb565b9250506020611ffc858286016117bb565b9150509250929050565b5f805f805f60a0868803121561201f5761201e61176d565b5b5f61202c888289016117bb565b955050602061203d888289016117bb565b945050604061204e888289016117ee565b935050606061205f888289016117ee565b925050608086013567ffffffffffffffff8111156120805761207f611771565b5b61208c88828901611bb3565b9150509295509295909350565b5f602082840312156120ae576120ad61176d565b5b5f6120bb848285016117bb565b91505092915050565b5f80604083850312156120da576120d961176d565b5b5f6120e7858286016117ee565b92505060206120f8858286016117ee565b9150509250929050565b7f4e487b71000000000000000000000000000000000000000000000000000000005f52602260045260245ffd5b5f600282049050600182168061214657607f821691505b60208210810361215957612158612102565b5b50919050565b5f6040820190506121725f830185611f38565b61217f6020830184611f38565b9392505050565b5f6040820190506121995f830185611840565b6121a66020830184611840565b9392505050565b7f4e487b71000000000000000000000000000000000000000000000000000000005f52603260045260245ffd5b7f4974656d207072696365206973206e6f742073657400000000000000000000005f82015250565b5f61220e601583611950565b9150612219826121da565b602082019050919050565b5f6020820190508181035f83015261223b81612202565b9050919050565b5f6080820190506122555f830187611f38565b6122626020830186611840565b61226f6040830185611840565b61227c6060830184611840565b95945050505050565b7f4e487b71000000000000000000000000000000000000000000000000000000005f52601160045260245ffd5b5f6122bc826117cf565b91506122c7836117cf565b92508282019050808211156122df576122de612285565b5b92915050565b5f6040820190508181035f8301526122fd8185611e3c565b905081810360208301526123118184611e3c565b90509392505050565b5f81519050919050565b5f82825260208201905092915050565b5f61233e8261231a565b6123488185612324565b9350612358818560208601611960565b61236181611988565b840191505092915050565b5f60a08201905061237f5f830188611f38565b61238c6020830187611f38565b6123996040830186611840565b6123a66060830185611840565b81810360808301526123b88184612334565b90509695505050505050565b5f815190506123d281611893565b92915050565b5f602082840312156123ed576123ec61176d565b5b5f6123fa848285016123c4565b91505092915050565b5f60a0820190506124165f830188611f38565b6124236020830187611f38565b81810360408301526124358186611e3c565b905081810360608301526124498185611e3c565b9050818103608083015261245d8184612334565b9050969550505050505056fea2646970667358221220641a008eaf561b441190572639b1bd6af1ce579dc391b7c390124f3ca3da698c64736f6c63430008180033","linkReferences":{}},"methodIdentifiers":{"STORE_ADDRESS()":"55155b1e","getBoughtItems(address)":"f5b2d01c","purchaseItem(uint256)":"d38ea5bf"},"id":21}