{"abi":[{"type":"constructor","inputs":[{"name":"_store","type":"address","internalType":"address"},{"name":"_aggregatorAddress","type":"address","internalType":"address"},{"name":"itemsIds","type":"uint256[]","internalType":"uint256[]"},{"name":"itemsPrices","type":"uint256[]","internalType":"uint256[]"}],"stateMutability":"nonpayable"},{"type":"function","name":"STORE_ADDRESS","inputs":[],"outputs":[{"name":"","type":"address","internalType":"address"}],"stateMutability":"view"},{"type":"function","name":"getBoughtItems","inputs":[{"name":"_user","type":"address","internalType":"address"}],"outputs":[{"name":"","type":"uint256[]","internalType":"uint256[]"}],"stateMutability":"view"},{"type":"function","name":"purchaseItem","inputs":[{"name":"_itemId","type":"uint256","internalType":"uint256"}],"outputs":[],"stateMutability":"payable"}],"bytecode":{"object":"0x60a060405234801562000010575f80fd5b506040516200174d3803806200174d8339818101604052810190620000369190620003c1565b8373ffffffffffffffffffffffffffffffffffffffff1660808173ffffffffffffffffffffffffffffffffffffffff16815250508260025f6101000a81548173ffffffffffffffffffffffffffffffffffffffff021916908373ffffffffffffffffffffffffffffffffffffffff1602179055505f825111620000f0576040517f08c379a0000000000000000000000000000000000000000000000000000000008152600401620000e790620004cc565b60405180910390fd5b805182511462000137576040517f08c379a00000000000000000000000000000000000000000000000000000000081526004016200012e90620004cc565b60405180910390fd5b5f5b8251811015620001a057818181518110620001595762000158620004ec565b5b60200260200101515f80858481518110620001795762000178620004ec565b5b602002602001015181526020019081526020015f2081905550808060010191505062000139565b505050505062000519565b5f604051905090565b5f80fd5b5f80fd5b5f73ffffffffffffffffffffffffffffffffffffffff82169050919050565b5f620001e782620001bc565b9050919050565b620001f981620001db565b811462000204575f80fd5b50565b5f815190506200021781620001ee565b92915050565b5f80fd5b5f601f19601f8301169050919050565b7f4e487b71000000000000000000000000000000000000000000000000000000005f52604160045260245ffd5b620002698262000221565b810181811067ffffffffffffffff821117156200028b576200028a62000231565b5b80604052505050565b5f6200029f620001ab565b9050620002ad82826200025e565b919050565b5f67ffffffffffffffff821115620002cf57620002ce62000231565b5b602082029050602081019050919050565b5f80fd5b5f819050919050565b620002f881620002e4565b811462000303575f80fd5b50565b5f815190506200031681620002ed565b92915050565b5f620003326200032c84620002b2565b62000294565b90508083825260208201905060208402830185811115620003585762000357620002e0565b5b835b8181101562000385578062000370888262000306565b8452602084019350506020810190506200035a565b5050509392505050565b5f82601f830112620003a657620003a56200021d565b5b8151620003b88482602086016200031c565b91505092915050565b5f805f8060808587031215620003dc57620003db620001b4565b5b5f620003eb8782880162000207565b9450506020620003fe8782880162000207565b935050604085015167ffffffffffffffff811115620004225762000421620001b8565b5b62000430878288016200038f565b925050606085015167ffffffffffffffff811115620004545762000453620001b8565b5b62000462878288016200038f565b91505092959194509250565b5f82825260208201905092915050565b7f496e76616c696420636f6e7374727563746f7220706172616d730000000000005f82015250565b5f620004b4601a836200046e565b9150620004c1826200047e565b602082019050919050565b5f6020820190508181035f830152620004e581620004a6565b9050919050565b7f4e487b71000000000000000000000000000000000000000000000000000000005f52603260045260245ffd5b608051611215620005385f395f818160bb01526103ad01526112155ff3fe608060405260043610610033575f3560e01c806355155b1e14610037578063d38ea5bf14610061578063f5b2d01c1461007d575b5f80fd5b348015610042575f80fd5b5061004b6100b9565b6040516100589190610891565b60405180910390f35b61007b600480360381019061007691906108e1565b6100dd565b005b348015610088575f80fd5b506100a3600480360381019061009e9190610936565b6104de565b6040516100b09190610a18565b60405180910390f35b7f000000000000000000000000000000000000000000000000000000000000000081565b5f805f8381526020019081526020015f205490505f8103610133576040517f08c379a000000000000000000000000000000000000000000000000000000000815260040161012a90610a92565b60405180910390fd5b6101726040518060400160405280602081526020017f43757272656e74206974656d20707269636520696e207573642063656e74733a815250826105f5565b5f61017b610691565b90505f8112156101c0576040517f08c379a00000000000000000000000000000000000000000000000000000000081526004016101b790610afa565b60405180910390fd5b5f8190506102036040518060400160405280601681526020017f43757272656e7420507269636520534f4c2f5553443a00000000000000000000815250826105f5565b5f60025f9054906101000a900473ffffffffffffffffffffffffffffffffffffffff1673ffffffffffffffffffffffffffffffffffffffff1663313ce5676040518163ffffffff1660e01b8152600401602060405180830381865afa15801561026e573d5f803e3d5ffd5b505050506040513d601f19601f820116820180604052508101906102929190610b4e565b60ff1690506102d66040518060400160405280600c81526020017f446563696d616c733a2025730000000000000000000000000000000000000000815250826105f5565b5f600990505f606483600a6102eb9190610cd5565b83600a6102f89190610cd5565b886103039190610d1f565b61030d9190610d1f565b6103179190610d8d565b90505f84826103269190610d8d565b90506103676040518060400160405280601681526020017f4974656d20707269636520696e20534f4c207765693a00000000000000000000815250826105f5565b803410156103aa576040517f08c379a00000000000000000000000000000000000000000000000000000000081526004016103a190610e07565b60405180910390fd5b5f7f000000000000000000000000000000000000000000000000000000000000000073ffffffffffffffffffffffffffffffffffffffff16826040516103ef90610e52565b5f6040518083038185875af1925050503d805f8114610429576040519150601f19603f3d011682016040523d82523d5f602084013e61042e565b606091505b5050905080610472576040517f08c379a000000000000000000000000000000000000000000000000000000000815260040161046990610a92565b60405180910390fd5b60015f3373ffffffffffffffffffffffffffffffffffffffff1673ffffffffffffffffffffffffffffffffffffffff1681526020019081526020015f2089908060018154018082558091505060019003905f5260205f20015f9091909190915055505050505050505050565b60605f73ffffffffffffffffffffffffffffffffffffffff168273ffffffffffffffffffffffffffffffffffffffff1603610563575f67ffffffffffffffff81111561052d5761052c610e66565b5b60405190808252806020026020018201604052801561055b5781602001602082028036833780820191505090505b5090506105f0565b60015f8373ffffffffffffffffffffffffffffffffffffffff1673ffffffffffffffffffffffffffffffffffffffff1681526020019081526020015f208054806020026020016040519081016040528092919081815260200182805480156105e857602002820191905f5260205f20905b8154815260200190600101908083116105d4575b505050505090505b919050565b61068d828260405160240161060b929190610f1c565b6040516020818303038152906040527fb60e72cc000000000000000000000000000000000000000000000000000000007bffffffffffffffffffffffffffffffffffffffffffffffffffffffff19166020820180517bffffffffffffffffffffffffffffffffffffffffffffffffffffffff8381831617835250505050610804565b5050565b5f805f60025f9054906101000a900473ffffffffffffffffffffffffffffffffffffffff1673ffffffffffffffffffffffffffffffffffffffff1663feaf968c6040518163ffffffff1660e01b815260040160a060405180830381865afa1580156106fe573d5f803e3d5ffd5b505050506040513d601f19601f820116820180604052508101906107229190610fd0565b509350509250505f821361076b576040517f08c379a000000000000000000000000000000000000000000000000000000000815260040161076290611091565b60405180910390fd5b5f81036107ad576040517f08c379a00000000000000000000000000000000000000000000000000000000081526004016107a4906110f9565b60405180910390fd5b610e1081426107bc9190611117565b106107fc576040517f08c379a00000000000000000000000000000000000000000000000000000000081526004016107f390611194565b60405180910390fd5b819250505090565b61081b8161081361081e61083d565b63ffffffff16565b50565b5f6a636f6e736f6c652e6c6f6790505f80835160208501845afa505050565b610848819050919050565b6108506111b2565b565b5f73ffffffffffffffffffffffffffffffffffffffff82169050919050565b5f61087b82610852565b9050919050565b61088b81610871565b82525050565b5f6020820190506108a45f830184610882565b92915050565b5f80fd5b5f819050919050565b6108c0816108ae565b81146108ca575f80fd5b50565b5f813590506108db816108b7565b92915050565b5f602082840312156108f6576108f56108aa565b5b5f610903848285016108cd565b91505092915050565b61091581610871565b811461091f575f80fd5b50565b5f813590506109308161090c565b92915050565b5f6020828403121561094b5761094a6108aa565b5b5f61095884828501610922565b91505092915050565b5f81519050919050565b5f82825260208201905092915050565b5f819050602082019050919050565b610993816108ae565b82525050565b5f6109a4838361098a565b60208301905092915050565b5f602082019050919050565b5f6109c682610961565b6109d0818561096b565b93506109db8361097b565b805f5b83811015610a0b5781516109f28882610999565b97506109fd836109b0565b9250506001810190506109de565b5085935050505092915050565b5f6020820190508181035f830152610a3081846109bc565b905092915050565b5f82825260208201905092915050565b7f5472616e73666572206661696c656400000000000000000000000000000000005f82015250565b5f610a7c600f83610a38565b9150610a8782610a48565b602082019050919050565b5f6020820190508181035f830152610aa981610a70565b9050919050565b7f5072696365206d757374206265206e6f6e6e65676174697665000000000000005f82015250565b5f610ae4601983610a38565b9150610aef82610ab0565b602082019050919050565b5f6020820190508181035f830152610b1181610ad8565b9050919050565b5f60ff82169050919050565b610b2d81610b18565b8114610b37575f80fd5b50565b5f81519050610b4881610b24565b92915050565b5f60208284031215610b6357610b626108aa565b5b5f610b7084828501610b3a565b91505092915050565b7f4e487b71000000000000000000000000000000000000000000000000000000005f52601160045260245ffd5b5f8160011c9050919050565b5f808291508390505b6001851115610bfb57808604811115610bd757610bd6610b79565b5b6001851615610be65780820291505b8081029050610bf485610ba6565b9450610bbb565b94509492505050565b5f82610c135760019050610cce565b81610c20575f9050610cce565b8160018114610c365760028114610c4057610c6f565b6001915050610cce565b60ff841115610c5257610c51610b79565b5b8360020a915084821115610c6957610c68610b79565b5b50610cce565b5060208310610133831016604e8410600b8410161715610ca45782820a905083811115610c9f57610c9e610b79565b5b610cce565b610cb18484846001610bb2565b92509050818404811115610cc857610cc7610b79565b5b81810290505b9392505050565b5f610cdf826108ae565b9150610cea836108ae565b9250610d177fffffffffffffffffffffffffffffffffffffffffffffffffffffffffffffffff8484610c04565b905092915050565b5f610d29826108ae565b9150610d34836108ae565b9250828202610d42816108ae565b91508282048414831517610d5957610d58610b79565b5b5092915050565b7f4e487b71000000000000000000000000000000000000000000000000000000005f52601260045260245ffd5b5f610d97826108ae565b9150610da2836108ae565b925082610db257610db1610d60565b5b828204905092915050565b7f496e73756666696369656e742066756e647300000000000000000000000000005f82015250565b5f610df1601283610a38565b9150610dfc82610dbd565b602082019050919050565b5f6020820190508181035f830152610e1e81610de5565b9050919050565b5f81905092915050565b50565b5f610e3d5f83610e25565b9150610e4882610e2f565b5f82019050919050565b5f610e5c82610e32565b9150819050919050565b7f4e487b71000000000000000000000000000000000000000000000000000000005f52604160045260245ffd5b5f81519050919050565b5f5b83811015610eba578082015181840152602081019050610e9f565b5f8484015250505050565b5f601f19601f8301169050919050565b5f610edf82610e93565b610ee98185610a38565b9350610ef9818560208601610e9d565b610f0281610ec5565b840191505092915050565b610f16816108ae565b82525050565b5f6040820190508181035f830152610f348185610ed5565b9050610f436020830184610f0d565b9392505050565b5f69ffffffffffffffffffff82169050919050565b610f6881610f4a565b8114610f72575f80fd5b50565b5f81519050610f8381610f5f565b92915050565b5f819050919050565b610f9b81610f89565b8114610fa5575f80fd5b50565b5f81519050610fb681610f92565b92915050565b5f81519050610fca816108b7565b92915050565b5f805f805f60a08688031215610fe957610fe86108aa565b5b5f610ff688828901610f75565b955050602061100788828901610fa8565b945050604061101888828901610fbc565b935050606061102988828901610fbc565b925050608061103a88828901610f75565b9150509295509295909350565b7f496e76616c6964207072696365000000000000000000000000000000000000005f82015250565b5f61107b600d83610a38565b915061108682611047565b602082019050919050565b5f6020820190508181035f8301526110a88161106f565b9050919050565b7f526f756e64206e6f7420636f6d706c65746500000000000000000000000000005f82015250565b5f6110e3601283610a38565b91506110ee826110af565b602082019050919050565b5f6020820190508181035f830152611110816110d7565b9050919050565b5f611121826108ae565b915061112c836108ae565b925082820390508181111561114457611143610b79565b5b92915050565b7f5374616c652070726963650000000000000000000000000000000000000000005f82015250565b5f61117e600b83610a38565b91506111898261114a565b602082019050919050565b5f6020820190508181035f8301526111ab81611172565b9050919050565b7f4e487b71000000000000000000000000000000000000000000000000000000005f52605160045260245ffdfea2646970667358221220366c783c917e95a231962d979b0c02372b1690cc36842fbc57fbfde885c9a72664736f6c63430008180033","linkReferences":{}},"methodIdentifiers":{"STORE_ADDRESS()":"55155b1e","getBoughtItems(address)":"f5b2d01c","purchaseItem(uint256)":"d38ea5bf"},"id":1}