{"abi":[{"type":"constructor","inputs":[{"name":"uri","type":"string","internalType":"string"},{"name":"owner","type":"address","internalType":"address"}],"stateMutability":"nonpayable"},{"type":"function","name":"balanceOf","inputs":[{"name":"account","type":"address","internalType":"address"},{"name":"id","type":"uint256","internalType":"uint256"}],"outputs":[{"name":"","type":"uint256","internalType":"uint256"}],"stateMutability":"view"},{"type":"function","name":"balanceOfBatch","inputs":[{"name":"accounts","type":"address[]","internalType":"address[]"},{"name":"ids","type":"uint256[]","internalType":"uint256[]"}],"outputs":[{"name":"","type":"uint256[]","internalType":"uint256[]"}],"stateMutability":"view"},{"type":"function","name":"isApprovedForAll","inputs":[{"name":"account","type":"address","internalType":"address"},{"name":"operator","type":"address","internalType":"address"}],"outputs":[{"name":"","type":"bool","internalType":"bool"}],"stateMutability":"view"},{"type":"function","name":"items","inputs":[],"outputs":[{"name":"","type":"uint256[]","internalType":"uint256[]"}],"stateMutability":"view"},{"type":"function","name":"mint","inputs":[{"name":"to","type":"address","internalType":"address"},{"name":"id","type":"uint256","internalType":"uint256"},{"name":"amount","type":"uint256","internalType":"uint256"},{"name":"data","type":"bytes","internalType":"bytes"}],"outputs":[],"stateMutability":"nonpayable"},{"type":"function","name":"owner","inputs":[],"outputs":[{"name":"","type":"address","internalType":"address"}],"stateMutability":"view"},{"type":"function","name":"priceOf","inputs":[{"name":"id","type":"uint256","internalType":"uint256"}],"outputs":[{"name":"","type":"uint256","internalType":"uint256"}],"stateMutability":"view"},{"type":"function","name":"renounceOwnership","inputs":[],"outputs":[],"stateMutability":"nonpayable"},{"type":"function","name":"safeBatchTransferFrom","inputs":[{"name":"from","type":"address","internalType":"address"},{"name":"to","type":"address","internalType":"address"},{"name":"ids","type":"uint256[]","internalType":"uint256[]"},{"name":"values","type":"uint256[]","internalType":"uint256[]"},{"name":"data","type":"bytes","internalType":"bytes"}],"outputs":[],"stateMutability":"nonpayable"},{"type":"function","name":"safeTransferFrom","inputs":[{"name":"from","type":"address","internalType":"address"},{"name":"to","type":"address","internalType":"address"},{"name":"id","type":"uint256","internalType":"uint256"},{"name":"value","type":"uint256","internalType":"uint256"},{"name":"data","type":"bytes","internalType":"bytes"}],"outputs":[],"stateMutability":"nonpayable"},{"type":"function","name":"setApprovalForAll","inputs":[{"name":"operator","type":"address","internalType":"address"},{"name":"approved","type":"bool","internalType":"bool"}],"outputs":[],"stateMutability":"nonpayable"},{"type":"function","name":"setPrice","inputs":[{"name":"id","type":"uint256","internalType":"uint256"},{"name":"price","type":"uint256","internalType":"uint256"}],"outputs":[],"stateMutability":"nonpayable"},{"type":"function","name":"supportsInterface","inputs":[{"name":"interfaceId","type":"bytes4","internalType":"bytes4"}],"outputs":[{"name":"","type":"bool","internalType":"bool"}],"stateMutability":"view"},{"type":"function","name":"transferOwnership","inputs":[{"name":"newOwner","type":"address","internalType":"address"}],"outputs":[],"stateMutability":"nonpayable"},{"type":"function","name":"uri","inputs":[{"name":"","type":"uint256","internalType":"uint256"}],"outputs":[{"name":"","type":"string","internalType":"string"}],"stateMutability":"view"},{"type":"event","name":"ApprovalForAll","inputs":[{"name":"account","type":"address","indexed":true,"internalType":"address"},{"name":"operator","type":"address","indexed":true,"internalType":"address"},{"name":"approved","type":"bool","indexed":false,"internalType":"bool"}],"anonymous":false},{"type":"event","name":"OwnershipTransferred","inputs":[{"name":"previousOwner","type":"address","indexed":true,"internalType":"address"},{"name":"newOwner","type":"address","indexed":true,"internalType":"address"}],"anonymous":false},{"type":"event","name":"TransferBatch","inputs":[{"name":"operator","type":"address","indexed":true,"internalType":"address"},{"name":"from","type":"address","indexed":true,"internalType":"address"},{"name":"to","type":"address","indexed":true,"internalType":"address"},{"name":"ids","type":"uint256[]","indexed":false,"internalType":"uint256[]"},{"name":"values","type":"uint256[]","indexed":false,"internalType":"uint256[]"}],"anonymous":false},{"type":"event","name":"TransferSingle","inputs":[{"name":"operator","type":"address","indexed":true,"internalType":"address"},{"name":"from","type":"address","indexed":true,"internalType":"address"},{"name":"to","type":"address","indexed":true,"internalType":"address"},{"name":"id","type":"uint256","indexed":false,"internalType":"uint256"},{"name":"value","type":"uint256","indexed":false,"internalType":"uint256"}],"anonymous":false},{"type":"event","name":"URI","inputs":[{"name":"value","type":"string","indexed":false,"internalType":"string"},{"name":"id","type":"uint256","indexed":true,"internalType":"uint256"}],"anonymous":false},{"type":"error","name":"ERC1155InsufficientBalance","inputs":[{"name":"sender","type":"address","internalType":"address"},{"name":"balance","type":"uint256","internalType":"uint256"},{"name":"needed","type":"uint256","internalType":"uint256"},{"name":"tokenId","type":"uint256","internalType":"uint256"}]},{"type":"error","name":"ERC1155InvalidApprover","inputs":[{"name":"approver","type":"address","internalType":"address"}]},{"type":"error","name":"ERC1155InvalidArrayLength","inputs":[{"name":"idsLength","type":"uint256","internalType":"uint256"},{"name":"valuesLength","type":"uint256","internalType":"uint256"}]},{"type":"error","name":"ERC1155InvalidOperator","inputs":[{"name":"operator","type":"address","internalType":"address"}]},{"type":"error","name":"ERC1155InvalidReceiver","inputs":[{"name":"receiver","type":"address","internalType":"address"}]},{"type":"error","name":"ERC1155InvalidSender","inputs":[{"name":"sender","type":"address","internalType":"address"}]},{"type":"error","name":"ERC1155MissingApprovalForAll","inputs":[{"name":"operator","type":"address","internalType":"address"},{"name":"owner","type":"address","internalType":"address"}]},{"type":"error","name":"OwnableInvalidOwner","inputs":[{"name":"owner","type":"address","internalType":"address"}]},{"type":"error","name":"OwnableUnauthorizedAccount","inputs":[{"name":"account","type":"address","internalType":"address"}]}],"bytecode":{"object":"0x608060405234801562000010575f80fd5b5060405162002bed38038062002bed833981810160405281019062000036919062000395565b80826200004981620000d760201b60201c565b505f73ffffffffffffffffffffffffffffffffffffffff168173ffffffffffffffffffffffffffffffffffffffff1603620000bd575f6040517f1e4fbdf7000000000000000000000000000000000000000000000000000000008152600401620000b491906200040a565b60405180910390fd5b620000ce81620000ec60201b60201c565b50505062000740565b8060029081620000e891906200065c565b5050565b5f60035f9054906101000a900473ffffffffffffffffffffffffffffffffffffffff1690508160035f6101000a81548173ffffffffffffffffffffffffffffffffffffffff021916908373ffffffffffffffffffffffffffffffffffffffff1602179055508173ffffffffffffffffffffffffffffffffffffffff168173ffffffffffffffffffffffffffffffffffffffff167f8be0079c531659141344cd1fd0a4f28419497f9722a3daafe3b4186f6b6457e060405160405180910390a35050565b5f604051905090565b5f80fd5b5f80fd5b5f80fd5b5f80fd5b5f601f19601f8301169050919050565b7f4e487b71000000000000000000000000000000000000000000000000000000005f52604160045260245ffd5b6200021082620001c8565b810181811067ffffffffffffffff82111715620002325762000231620001d8565b5b80604052505050565b5f62000246620001af565b905062000254828262000205565b919050565b5f67ffffffffffffffff821115620002765762000275620001d8565b5b6200028182620001c8565b9050602081019050919050565b5f5b83811015620002ad57808201518184015260208101905062000290565b5f8484015250505050565b5f620002ce620002c88462000259565b6200023b565b905082815260208101848484011115620002ed57620002ec620001c4565b5b620002fa8482856200028e565b509392505050565b5f82601f830112620003195762000318620001c0565b5b81516200032b848260208601620002b8565b91505092915050565b5f73ffffffffffffffffffffffffffffffffffffffff82169050919050565b5f6200035f8262000334565b9050919050565b620003718162000353565b81146200037c575f80fd5b50565b5f815190506200038f8162000366565b92915050565b5f8060408385031215620003ae57620003ad620001b8565b5b5f83015167ffffffffffffffff811115620003ce57620003cd620001bc565b5b620003dc8582860162000302565b9250506020620003ef858286016200037f565b9150509250929050565b620004048162000353565b82525050565b5f6020820190506200041f5f830184620003f9565b92915050565b5f81519050919050565b7f4e487b71000000000000000000000000000000000000000000000000000000005f52602260045260245ffd5b5f60028204905060018216806200047457607f821691505b6020821081036200048a57620004896200042f565b5b50919050565b5f819050815f5260205f209050919050565b5f6020601f8301049050919050565b5f82821b905092915050565b5f60088302620004ee7fffffffffffffffffffffffffffffffffffffffffffffffffffffffffffffffff82620004b1565b620004fa8683620004b1565b95508019841693508086168417925050509392505050565b5f819050919050565b5f819050919050565b5f620005446200053e620005388462000512565b6200051b565b62000512565b9050919050565b5f819050919050565b6200055f8362000524565b620005776200056e826200054b565b848454620004bd565b825550505050565b5f90565b6200058d6200057f565b6200059a81848462000554565b505050565b5b81811015620005c157620005b55f8262000583565b600181019050620005a0565b5050565b601f8211156200061057620005da8162000490565b620005e584620004a2565b81016020851015620005f5578190505b6200060d6200060485620004a2565b8301826200059f565b50505b505050565b5f82821c905092915050565b5f620006325f198460080262000615565b1980831691505092915050565b5f6200064c838362000621565b9150826002028217905092915050565b620006678262000425565b67ffffffffffffffff811115620006835762000682620001d8565b5b6200068f82546200045c565b6200069c828285620005c5565b5f60209050601f831160018114620006d2575f8415620006bd578287015190505b620006c985826200063f565b86555062000738565b601f198416620006e28662000490565b5f5b828110156200070b57848901518255600182019150602085019450602081019050620006e4565b868310156200072b578489015162000727601f89168262000621565b8355505b6001600288020188555050505b505050505050565b61249f806200074e5f395ff3fe608060405234801561000f575f80fd5b50600436106100f2575f3560e01c80638da5cb5b11610095578063e985e9c511610064578063e985e9c514610280578063f242432a146102b0578063f2fde38b146102cc578063f7d97577146102e8576100f2565b80638da5cb5b146101f8578063a22cb46514610216578063b9186d7d14610232578063c06fad0614610262576100f2565b80632eb2c2d6116100d15780632eb2c2d6146101865780634e1273f4146101a2578063715018a6146101d2578063731133e9146101dc576100f2565b8062fdd58e146100f657806301ffc9a7146101265780630e89341c14610156575b5f80fd5b610110600480360381019061010b9190611802565b610304565b60405161011d919061184f565b60405180910390f35b610140600480360381019061013b91906118bd565b610359565b60405161014d9190611902565b60405180910390f35b610170600480360381019061016b919061191b565b61043a565b60405161017d91906119d0565b60405180910390f35b6101a0600480360381019061019b9190611be0565b6104cc565b005b6101bc60048036038101906101b79190611d6b565b610573565b6040516101c99190611e98565b60405180910390f35b6101da61067a565b005b6101f660048036038101906101f19190611eb8565b61068d565b005b6102006106fa565b60405161020d9190611f47565b60405180910390f35b610230600480360381019061022b9190611f8a565b610722565b005b61024c6004803603810190610247919061191b565b610738565b604051610259919061184f565b60405180910390f35b61026a610752565b6040516102779190611e98565b60405180910390f35b61029a60048036038101906102959190611fc8565b6107a8565b6040516102a79190611902565b60405180910390f35b6102ca60048036038101906102c59190612006565b610836565b005b6102e660048036038101906102e19190612099565b6108dd565b005b61030260048036038101906102fd91906120c4565b610961565b005b5f805f8381526020019081526020015f205f8473ffffffffffffffffffffffffffffffffffffffff1673ffffffffffffffffffffffffffffffffffffffff1681526020019081526020015f2054905092915050565b5f7fd9b67a26000000000000000000000000000000000000000000000000000000007bffffffffffffffffffffffffffffffffffffffffffffffffffffffff1916827bffffffffffffffffffffffffffffffffffffffffffffffffffffffff1916148061042357507f0e89341c000000000000000000000000000000000000000000000000000000007bffffffffffffffffffffffffffffffffffffffffffffffffffffffff1916827bffffffffffffffffffffffffffffffffffffffffffffffffffffffff1916145b806104335750610432826109c2565b5b9050919050565b6060600280546104499061212f565b80601f01602080910402602001604051908101604052809291908181526020018280546104759061212f565b80156104c05780601f10610497576101008083540402835291602001916104c0565b820191905f5260205f20905b8154815290600101906020018083116104a357829003601f168201915b50505050509050919050565b5f6104d5610a2b565b90508073ffffffffffffffffffffffffffffffffffffffff168673ffffffffffffffffffffffffffffffffffffffff161415801561051a575061051886826107a8565b155b1561055e5780866040517fe237d92200000000000000000000000000000000000000000000000000000000815260040161055592919061215f565b60405180910390fd5b61056b8686868686610a32565b505050505050565b606081518351146105bf57815183516040517f5b0599910000000000000000000000000000000000000000000000000000000081526004016105b6929190612186565b60405180910390fd5b5f835167ffffffffffffffff8111156105db576105da6119f4565b5b6040519080825280602002602001820160405280156106095781602001602082028036833780820191505090505b5090505f5b845181101561066f5761064561062d8287610b2690919063ffffffff16565b6106408387610b3990919063ffffffff16565b610304565b828281518110610658576106576121ad565b5b60200260200101818152505080600101905061060e565b508091505092915050565b610682610b4c565b61068b5f610bd3565b565b610695610b4c565b5f60055f8581526020019081526020015f2054036106e8576040517f08c379a00000000000000000000000000000000000000000000000000000000081526004016106df90612224565b60405180910390fd5b6106f484848484610c96565b50505050565b5f60035f9054906101000a900473ffffffffffffffffffffffffffffffffffffffff16905090565b61073461072d610a2b565b8383610d2b565b5050565b5f60055f8381526020019081526020015f20549050919050565b6060600480548060200260200160405190810160405280929190818152602001828054801561079e57602002820191905f5260205f20905b81548152602001906001019080831161078a575b5050505050905090565b5f60015f8473ffffffffffffffffffffffffffffffffffffffff1673ffffffffffffffffffffffffffffffffffffffff1681526020019081526020015f205f8373ffffffffffffffffffffffffffffffffffffffff1673ffffffffffffffffffffffffffffffffffffffff1681526020019081526020015f205f9054906101000a900460ff16905092915050565b5f61083f610a2b565b90508073ffffffffffffffffffffffffffffffffffffffff168673ffffffffffffffffffffffffffffffffffffffff1614158015610884575061088286826107a8565b155b156108c85780866040517fe237d9220000000000000000000000000000000000000000000000000000000081526004016108bf92919061215f565b60405180910390fd5b6108d58686868686610e94565b505050505050565b6108e5610b4c565b5f73ffffffffffffffffffffffffffffffffffffffff168173ffffffffffffffffffffffffffffffffffffffff1603610955575f6040517f1e4fbdf700000000000000000000000000000000000000000000000000000000815260040161094c9190611f47565b60405180910390fd5b61095e81610bd3565b50565b610969610b4c565b5f60055f8481526020019081526020015f2054036109a857600482908060018154018082558091505060019003905f5260205f20015f90919091909150555b8060055f8481526020019081526020015f20819055505050565b5f7f01ffc9a7000000000000000000000000000000000000000000000000000000007bffffffffffffffffffffffffffffffffffffffffffffffffffffffff1916827bffffffffffffffffffffffffffffffffffffffffffffffffffffffff1916149050919050565b5f33905090565b5f73ffffffffffffffffffffffffffffffffffffffff168473ffffffffffffffffffffffffffffffffffffffff1603610aa2575f6040517f57f447ce000000000000000000000000000000000000000000000000000000008152600401610a999190611f47565b60405180910390fd5b5f73ffffffffffffffffffffffffffffffffffffffff168573ffffffffffffffffffffffffffffffffffffffff1603610b12575f6040517f01a83514000000000000000000000000000000000000000000000000000000008152600401610b099190611f47565b60405180910390fd5b610b1f8585858585610f9a565b5050505050565b5f60208202602084010151905092915050565b5f60208202602084010151905092915050565b610b54610a2b565b73ffffffffffffffffffffffffffffffffffffffff16610b726106fa565b73ffffffffffffffffffffffffffffffffffffffff1614610bd157610b95610a2b565b6040517f118cdaa7000000000000000000000000000000000000000000000000000000008152600401610bc89190611f47565b60405180910390fd5b565b5f60035f9054906101000a900473ffffffffffffffffffffffffffffffffffffffff1690508160035f6101000a81548173ffffffffffffffffffffffffffffffffffffffff021916908373ffffffffffffffffffffffffffffffffffffffff1602179055508173ffffffffffffffffffffffffffffffffffffffff168173ffffffffffffffffffffffffffffffffffffffff167f8be0079c531659141344cd1fd0a4f28419497f9722a3daafe3b4186f6b6457e060405160405180910390a35050565b5f73ffffffffffffffffffffffffffffffffffffffff168473ffffffffffffffffffffffffffffffffffffffff1603610d06575f6040517f57f447ce000000000000000000000000000000000000000000000000000000008152600401610cfd9190611f47565b60405180910390fd5b5f80610d128585611046565b91509150610d235f87848487610f9a565b505050505050565b5f73ffffffffffffffffffffffffffffffffffffffff168273ffffffffffffffffffffffffffffffffffffffff1603610d9b575f6040517fced3e100000000000000000000000000000000000000000000000000000000008152600401610d929190611f47565b60405180910390fd5b8060015f8573ffffffffffffffffffffffffffffffffffffffff1673ffffffffffffffffffffffffffffffffffffffff1681526020019081526020015f205f8473ffffffffffffffffffffffffffffffffffffffff1673ffffffffffffffffffffffffffffffffffffffff1681526020019081526020015f205f6101000a81548160ff0219169083151502179055508173ffffffffffffffffffffffffffffffffffffffff168373ffffffffffffffffffffffffffffffffffffffff167f17307eab39ab6107e8899845ad3d59bd9653f200f220920489ca2b5937696c3183604051610e879190611902565b60405180910390a3505050565b5f73ffffffffffffffffffffffffffffffffffffffff168473ffffffffffffffffffffffffffffffffffffffff1603610f04575f6040517f57f447ce000000000000000000000000000000000000000000000000000000008152600401610efb9190611f47565b60405180910390fd5b5f73ffffffffffffffffffffffffffffffffffffffff168573ffffffffffffffffffffffffffffffffffffffff1603610f74575f6040517f01a83514000000000000000000000000000000000000000000000000000000008152600401610f6b9190611f47565b60405180910390fd5b5f80610f808585611046565b91509150610f918787848487610f9a565b50505050505050565b610fa685858585611076565b5f73ffffffffffffffffffffffffffffffffffffffff168473ffffffffffffffffffffffffffffffffffffffff161461103f575f610fe2610a2b565b9050600184510361102e575f6110015f86610b3990919063ffffffff16565b90505f6110175f86610b3990919063ffffffff16565b9050611027838989858589611406565b505061103d565b61103c8187878787876115b5565b5b505b5050505050565b60608060405191506001825283602083015260408201905060018152826020820152604081016040529250929050565b80518251146110c057815181516040517f5b0599910000000000000000000000000000000000000000000000000000000081526004016110b7929190612186565b60405180910390fd5b5f6110c9610a2b565b90505f5b83518110156112c5575f6110ea8286610b3990919063ffffffff16565b90505f6111008386610b3990919063ffffffff16565b90505f73ffffffffffffffffffffffffffffffffffffffff168873ffffffffffffffffffffffffffffffffffffffff1614611223575f805f8481526020019081526020015f205f8a73ffffffffffffffffffffffffffffffffffffffff1673ffffffffffffffffffffffffffffffffffffffff1681526020019081526020015f20549050818110156111cf57888183856040517f03dee4c50000000000000000000000000000000000000000000000000000000081526004016111c69493929190612242565b60405180910390fd5b8181035f808581526020019081526020015f205f8b73ffffffffffffffffffffffffffffffffffffffff1673ffffffffffffffffffffffffffffffffffffffff1681526020019081526020015f2081905550505b5f73ffffffffffffffffffffffffffffffffffffffff168773ffffffffffffffffffffffffffffffffffffffff16146112b857805f808481526020019081526020015f205f8973ffffffffffffffffffffffffffffffffffffffff1673ffffffffffffffffffffffffffffffffffffffff1681526020019081526020015f205f8282546112b091906122b2565b925050819055505b50508060010190506110cd565b506001835103611380575f6112e35f85610b3990919063ffffffff16565b90505f6112f95f85610b3990919063ffffffff16565b90508573ffffffffffffffffffffffffffffffffffffffff168773ffffffffffffffffffffffffffffffffffffffff168473ffffffffffffffffffffffffffffffffffffffff167fc3d58168c5ae7397731d063d5bbf3d657854427343f4c083240f7aacaa2d0f628585604051611371929190612186565b60405180910390a450506113ff565b8373ffffffffffffffffffffffffffffffffffffffff168573ffffffffffffffffffffffffffffffffffffffff168273ffffffffffffffffffffffffffffffffffffffff167f4a39dc06d4c0dbc64b70af90fd698a233a518aa5d07e595d983b8c0526c8f7fb86866040516113f69291906122e5565b60405180910390a45b5050505050565b5f8473ffffffffffffffffffffffffffffffffffffffff163b11156115ad578373ffffffffffffffffffffffffffffffffffffffff1663f23a6e6187878686866040518663ffffffff1660e01b815260040161146695949392919061236c565b6020604051808303815f875af19250505080156114a157506040513d601f19601f8201168201806040525081019061149e91906123d8565b60015b611522573d805f81146114cf576040519150601f19603f3d011682016040523d82523d5f602084013e6114d4565b606091505b505f81510361151a57846040517f57f447ce0000000000000000000000000000000000000000000000000000000081526004016115119190611f47565b60405180910390fd5b805160208201fd5b63f23a6e6160e01b7bffffffffffffffffffffffffffffffffffffffffffffffffffffffff1916817bffffffffffffffffffffffffffffffffffffffffffffffffffffffff1916146115ab57846040517f57f447ce0000000000000000000000000000000000000000000000000000000081526004016115a29190611f47565b60405180910390fd5b505b505050505050565b5f8473ffffffffffffffffffffffffffffffffffffffff163b111561175c578373ffffffffffffffffffffffffffffffffffffffff1663bc197c8187878686866040518663ffffffff1660e01b8152600401611615959493929190612403565b6020604051808303815f875af192505050801561165057506040513d601f19601f8201168201806040525081019061164d91906123d8565b60015b6116d1573d805f811461167e576040519150601f19603f3d011682016040523d82523d5f602084013e611683565b606091505b505f8151036116c957846040517f57f447ce0000000000000000000000000000000000000000000000000000000081526004016116c09190611f47565b60405180910390fd5b805160208201fd5b63bc197c8160e01b7bffffffffffffffffffffffffffffffffffffffffffffffffffffffff1916817bffffffffffffffffffffffffffffffffffffffffffffffffffffffff19161461175a57846040517f57f447ce0000000000000000000000000000000000000000000000000000000081526004016117519190611f47565b60405180910390fd5b505b505050505050565b5f604051905090565b5f80fd5b5f80fd5b5f73ffffffffffffffffffffffffffffffffffffffff82169050919050565b5f61179e82611775565b9050919050565b6117ae81611794565b81146117b8575f80fd5b50565b5f813590506117c9816117a5565b92915050565b5f819050919050565b6117e1816117cf565b81146117eb575f80fd5b50565b5f813590506117fc816117d8565b92915050565b5f80604083850312156118185761181761176d565b5b5f611825858286016117bb565b9250506020611836858286016117ee565b9150509250929050565b611849816117cf565b82525050565b5f6020820190506118625f830184611840565b92915050565b5f7fffffffff0000000000000000000000000000000000000000000000000000000082169050919050565b61189c81611868565b81146118a6575f80fd5b50565b5f813590506118b781611893565b92915050565b5f602082840312156118d2576118d161176d565b5b5f6118df848285016118a9565b91505092915050565b5f8115159050919050565b6118fc816118e8565b82525050565b5f6020820190506119155f8301846118f3565b92915050565b5f602082840312156119305761192f61176d565b5b5f61193d848285016117ee565b91505092915050565b5f81519050919050565b5f82825260208201905092915050565b5f5b8381101561197d578082015181840152602081019050611962565b5f8484015250505050565b5f601f19601f8301169050919050565b5f6119a282611946565b6119ac8185611950565b93506119bc818560208601611960565b6119c581611988565b840191505092915050565b5f6020820190508181035f8301526119e88184611998565b905092915050565b5f80fd5b7f4e487b71000000000000000000000000000000000000000000000000000000005f52604160045260245ffd5b611a2a82611988565b810181811067ffffffffffffffff82111715611a4957611a486119f4565b5b80604052505050565b5f611a5b611764565b9050611a678282611a21565b919050565b5f67ffffffffffffffff821115611a8657611a856119f4565b5b602082029050602081019050919050565b5f80fd5b5f611aad611aa884611a6c565b611a52565b90508083825260208201905060208402830185811115611ad057611acf611a97565b5b835b81811015611af95780611ae588826117ee565b845260208401935050602081019050611ad2565b5050509392505050565b5f82601f830112611b1757611b166119f0565b5b8135611b27848260208601611a9b565b91505092915050565b5f80fd5b5f67ffffffffffffffff821115611b4e57611b4d6119f4565b5b611b5782611988565b9050602081019050919050565b828183375f83830152505050565b5f611b84611b7f84611b34565b611a52565b905082815260208101848484011115611ba057611b9f611b30565b5b611bab848285611b64565b509392505050565b5f82601f830112611bc757611bc66119f0565b5b8135611bd7848260208601611b72565b91505092915050565b5f805f805f60a08688031215611bf957611bf861176d565b5b5f611c06888289016117bb565b9550506020611c17888289016117bb565b945050604086013567ffffffffffffffff811115611c3857611c37611771565b5b611c4488828901611b03565b935050606086013567ffffffffffffffff811115611c6557611c64611771565b5b611c7188828901611b03565b925050608086013567ffffffffffffffff811115611c9257611c91611771565b5b611c9e88828901611bb3565b9150509295509295909350565b5f67ffffffffffffffff821115611cc557611cc46119f4565b5b602082029050602081019050919050565b5f611ce8611ce384611cab565b611a52565b90508083825260208201905060208402830185811115611d0b57611d0a611a97565b5b835b81811015611d345780611d2088826117bb565b845260208401935050602081019050611d0d565b5050509392505050565b5f82601f830112611d5257611d516119f0565b5b8135611d62848260208601611cd6565b91505092915050565b5f8060408385031215611d8157611d8061176d565b5b5f83013567ffffffffffffffff811115611d9e57611d9d611771565b5b611daa85828601611d3e565b925050602083013567ffffffffffffffff811115611dcb57611dca611771565b5b611dd785828601611b03565b9150509250929050565b5f81519050919050565b5f82825260208201905092915050565b5f819050602082019050919050565b611e13816117cf565b82525050565b5f611e248383611e0a565b60208301905092915050565b5f602082019050919050565b5f611e4682611de1565b611e508185611deb565b9350611e5b83611dfb565b805f5b83811015611e8b578151611e728882611e19565b9750611e7d83611e30565b925050600181019050611e5e565b5085935050505092915050565b5f6020820190508181035f830152611eb08184611e3c565b905092915050565b5f805f8060808587031215611ed057611ecf61176d565b5b5f611edd878288016117bb565b9450506020611eee878288016117ee565b9350506040611eff878288016117ee565b925050606085013567ffffffffffffffff811115611f2057611f1f611771565b5b611f2c87828801611bb3565b91505092959194509250565b611f4181611794565b82525050565b5f602082019050611f5a5f830184611f38565b92915050565b611f69816118e8565b8114611f73575f80fd5b50565b5f81359050611f8481611f60565b92915050565b5f8060408385031215611fa057611f9f61176d565b5b5f611fad858286016117bb565b9250506020611fbe85828601611f76565b9150509250929050565b5f8060408385031215611fde57611fdd61176d565b5b5f611feb858286016117bb565b9250506020611ffc858286016117bb565b9150509250929050565b5f805f805f60a0868803121561201f5761201e61176d565b5b5f61202c888289016117bb565b955050602061203d888289016117bb565b945050604061204e888289016117ee565b935050606061205f888289016117ee565b925050608086013567ffffffffffffffff8111156120805761207f611771565b5b61208c88828901611bb3565b9150509295509295909350565b5f602082840312156120ae576120ad61176d565b5b5f6120bb848285016117bb565b91505092915050565b5f80604083850312156120da576120d961176d565b5b5f6120e7858286016117ee565b92505060206120f8858286016117ee565b9150509250929050565b7f4e487b71000000000000000000000000000000000000000000000000000000005f52602260045260245ffd5b5f600282049050600182168061214657607f821691505b60208210810361215957612158612102565b5b50919050565b5f6040820190506121725f830185611f38565b61217f6020830184611f38565b9392505050565b5f6040820190506121995f830185611840565b6121a66020830184611840565b9392505050565b7f4e487b71000000000000000000000000000000000000000000000000000000005f52603260045260245ffd5b7f4974656d207072696365206973206e6f742073657400000000000000000000005f82015250565b5f61220e601583611950565b9150612219826121da565b602082019050919050565b5f6020820190508181035f83015261223b81612202565b9050919050565b5f6080820190506122555f830187611f38565b6122626020830186611840565b61226f6040830185611840565b61227c6060830184611840565b95945050505050565b7f4e487b71000000000000000000000000000000000000000000000000000000005f52601160045260245ffd5b5f6122bc826117cf565b91506122c7836117cf565b92508282019050808211156122df576122de612285565b5b92915050565b5f6040820190508181035f8301526122fd8185611e3c565b905081810360208301526123118184611e3c565b90509392505050565b5f81519050919050565b5f82825260208201905092915050565b5f61233e8261231a565b6123488185612324565b9350612358818560208601611960565b61236181611988565b840191505092915050565b5f60a08201905061237f5f830188611f38565b61238c6020830187611f38565b6123996040830186611840565b6123a66060830185611840565b81810360808301526123b88184612334565b90509695505050505050565b5f815190506123d281611893565b92915050565b5f602082840312156123ed576123ec61176d565b5b5f6123fa848285016123c4565b91505092915050565b5f60a0820190506124165f830188611f38565b6124236020830187611f38565b81810360408301526124358186611e3c565b905081810360608301526124498185611e3c565b9050818103608083015261245d8184612334565b9050969550505050505056fea2646970667358221220641a008eaf561b441190572639b1bd6af1ce579dc391b7c390124f3ca3da698c64736f6c63430008180033","linkReferences":{}},"methodIdentifiers":{"balanceOf(address,uint256)":"00fdd58e","balanceOfBatch(address[],uint256[])":"4e1273f4","isApprovedForAll(address,address)":"e985e9c5","items()":"c06fad06","mint(address,uint256,uint256,bytes)":"731133e9","owner()":"8da5cb5b","priceOf(uint256)":"b9186d7d","renounceOwnership()":"715018a6","safeBatchTransferFrom(address,address,uint256[],uint256[],bytes)":"2eb2c2d6","safeTransferFrom(address,address,uint256,uint256,bytes)":"f242432a","setApprovalForAll(address,bool)":"a22cb465","setPrice(uint256,uint256)":"f7d97577","supportsInterface(bytes4)":"01ffc9a7","transferOwnership(address)":"f2fde38b","uri(uint256)":"0e89341c"},"id":1}