{"abi":[{"type":"constructor","inputs":[{"name":"initPrice","type":"int256","internalType":"int256"},{"name":"initDecimals","type":"uint8","internalType":"uint8"},{"name":"initDescription","type":"string","internalType":"string"},{"name":"initVersion","type":"uint256","internalType":"uint256"}],"stateMutability":"nonpayable"},{"type":"function","name":"decimals","inputs":[],"outputs":[{"name":"","type":"uint8","internalType":"uint8"}],"stateMutability":"view"},{"type":"function","name":"description","inputs":[],"outputs":[{"name":"","type":"string","internalType":"string"}],"stateMutability":"view"},{"type":"function","name":"getRoundData","inputs":[{"name":"_roundId","type":"uint80","internalType":"uint80"}],"outputs":[{"name":"roundId","type":"uint80","internalType":"uint80"},{"name":"answer","type":"int256","internalType":"int256"},{"name":"startedAt","type":"uint256","internalType":"uint256"},{"name":"updatedAt","type":"uint256","internalType":"uint256"},{"name":"answeredInRound","type":"uint80","internalType":"uint80"}],"stateMutability":"view"},{"type":"function","name":"latestRoundData","inputs":[],"outputs":[{"name":"roundId","type":"uint80","internalType":"uint80"},{"name":"answer","type":"int256","internalType":"int256"},{"name":"startedAt","type":"uint256","internalType":"uint256"},{"name":"updatedAt","type":"uint256","internalType":"uint256"},{"name":"answeredInRound","type":"uint80","internalType":"uint80"}],"stateMutability":"view"},{"type":"function","name":"setPrice","inputs":[{"name":"newPrice","type":"int256","internalType":"int256"}],"outputs":[],"stateMutability":"nonpayable"},{"type":"function","name":"version","inputs":[],"outputs":[{"name":"","type":"uint256","internalType":"uint256"}],"stateMutability":"view"}],"bytecode":{"object":"0x608060405234801562000010575f80fd5b5060405162000c7238038062000c728339818101604052810190620000369190620002dd565b835f819055508260015f6101000a81548160ff021916908360ff160217905550816002908162000067919062000599565b5080600381905550600160045f6101000a81548169ffffffffffffffffffff021916908369ffffffffffffffffffff16021790555042600581905550505050506200067d565b5f604051905090565b5f80fd5b5f80fd5b5f819050919050565b620000d281620000be565b8114620000dd575f80fd5b50565b5f81519050620000f081620000c7565b92915050565b5f60ff82169050919050565b6200010d81620000f6565b811462000118575f80fd5b50565b5f815190506200012b8162000102565b92915050565b5f80fd5b5f80fd5b5f601f19601f8301169050919050565b7f4e487b71000000000000000000000000000000000000000000000000000000005f52604160045260245ffd5b620001818262000139565b810181811067ffffffffffffffff82111715620001a357620001a262000149565b5b80604052505050565b5f620001b7620000ad565b9050620001c5828262000176565b919050565b5f67ffffffffffffffff821115620001e757620001e662000149565b5b620001f28262000139565b9050602081019050919050565b5f5b838110156200021e57808201518184015260208101905062000201565b5f8484015250505050565b5f6200023f6200023984620001ca565b620001ac565b9050828152602081018484840111156200025e576200025d62000135565b5b6200026b848285620001ff565b509392505050565b5f82601f8301126200028a576200028962000131565b5b81516200029c84826020860162000229565b91505092915050565b5f819050919050565b620002b981620002a5565b8114620002c4575f80fd5b50565b5f81519050620002d781620002ae565b92915050565b5f805f8060808587031215620002f857620002f7620000b6565b5b5f6200030787828801620000e0565b94505060206200031a878288016200011b565b935050604085015167ffffffffffffffff8111156200033e576200033d620000ba565b5b6200034c8782880162000273565b92505060606200035f87828801620002c7565b91505092959194509250565b5f81519050919050565b7f4e487b71000000000000000000000000000000000000000000000000000000005f52602260045260245ffd5b5f6002820490506001821680620003ba57607f821691505b602082108103620003d057620003cf62000375565b5b50919050565b5f819050815f5260205f209050919050565b5f6020601f8301049050919050565b5f82821b905092915050565b5f60088302620004347fffffffffffffffffffffffffffffffffffffffffffffffffffffffffffffffff82620003f7565b620004408683620003f7565b95508019841693508086168417925050509392505050565b5f819050919050565b5f620004816200047b6200047584620002a5565b62000458565b620002a5565b9050919050565b5f819050919050565b6200049c8362000461565b620004b4620004ab8262000488565b84845462000403565b825550505050565b5f90565b620004ca620004bc565b620004d781848462000491565b505050565b5b81811015620004fe57620004f25f82620004c0565b600181019050620004dd565b5050565b601f8211156200054d576200051781620003d6565b6200052284620003e8565b8101602085101562000532578190505b6200054a6200054185620003e8565b830182620004dc565b50505b505050565b5f82821c905092915050565b5f6200056f5f198460080262000552565b1980831691505092915050565b5f6200058983836200055e565b9150826002028217905092915050565b620005a4826200036b565b67ffffffffffffffff811115620005c057620005bf62000149565b5b620005cc8254620003a2565b620005d982828562000502565b5f60209050601f8311600181146200060f575f8415620005fa578287015190505b6200060685826200057c565b86555062000675565b601f1984166200061f86620003d6565b5f5b82811015620006485784890151825560018201915060208501945060208101905062000621565b8683101562000668578489015162000664601f8916826200055e565b8355505b6001600288020188555050505b505050505050565b6105e7806200068b5f395ff3fe608060405234801561000f575f80fd5b5060043610610060575f3560e01c8063313ce5671461006457806354fd4d50146100825780637284e416146100a05780639a6fc8f5146100be578063f7a30806146100f2578063feaf968c1461010e575b5f80fd5b61006c610130565b60405161007991906102c7565b60405180910390f35b61008a610145565b60405161009791906102f8565b60405180910390f35b6100a861014e565b6040516100b5919061039b565b60405180910390f35b6100d860048036038101906100d391906103fe565b6101de565b6040516100e9959493929190610450565b60405180910390f35b61010c600480360381019061010791906104cb565b6101fe565b005b610116610260565b604051610127959493929190610450565b60405180910390f35b5f60015f9054906101000a900460ff16905090565b5f600354905090565b60606002805461015d90610523565b80601f016020809104026020016040519081016040528092919081815260200182805461018990610523565b80156101d45780601f106101ab576101008083540402835291602001916101d4565b820191905f5260205f20905b8154815290600101906020018083116101b757829003601f168201915b5050505050905090565b5f805f805f855f545f600554899450945094509450945091939590929450565b805f819055504260058190555060045f81819054906101000a900469ffffffffffffffffffff168092919061023290610580565b91906101000a81548169ffffffffffffffffffff021916908369ffffffffffffffffffff1602179055505050565b5f805f805f60045f9054906101000a900469ffffffffffffffffffff165f545f60055460045f9054906101000a900469ffffffffffffffffffff16945094509450945094509091929394565b5f60ff82169050919050565b6102c1816102ac565b82525050565b5f6020820190506102da5f8301846102b8565b92915050565b5f819050919050565b6102f2816102e0565b82525050565b5f60208201905061030b5f8301846102e9565b92915050565b5f81519050919050565b5f82825260208201905092915050565b5f5b8381101561034857808201518184015260208101905061032d565b5f8484015250505050565b5f601f19601f8301169050919050565b5f61036d82610311565b610377818561031b565b935061038781856020860161032b565b61039081610353565b840191505092915050565b5f6020820190508181035f8301526103b38184610363565b905092915050565b5f80fd5b5f69ffffffffffffffffffff82169050919050565b6103dd816103bf565b81146103e7575f80fd5b50565b5f813590506103f8816103d4565b92915050565b5f60208284031215610413576104126103bb565b5b5f610420848285016103ea565b91505092915050565b610432816103bf565b82525050565b5f819050919050565b61044a81610438565b82525050565b5f60a0820190506104635f830188610429565b6104706020830187610441565b61047d60408301866102e9565b61048a60608301856102e9565b6104976080830184610429565b9695505050505050565b6104aa81610438565b81146104b4575f80fd5b50565b5f813590506104c5816104a1565b92915050565b5f602082840312156104e0576104df6103bb565b5b5f6104ed848285016104b7565b91505092915050565b7f4e487b71000000000000000000000000000000000000000000000000000000005f52602260045260245ffd5b5f600282049050600182168061053a57607f821691505b60208210810361054d5761054c6104f6565b5b50919050565b7f4e487b71000000000000000000000000000000000000000000000000000000005f52601160045260245ffd5b5f61058a826103bf565b915069ffffffffffffffffffff82036105a6576105a5610553565b5b60018201905091905056fea2646970667358221220c31954ce7e9a5460938be1ab06dd89b74c6c5391fd2c66bbc1b793250f1cff8564736f6c63430008180033","linkReferences":{}},"methodIdentifiers":{"decimals()":"313ce567","description()":"7284e416","getRoundData(uint80)":"9a6fc8f5","latestRoundData()":"feaf968c","setPrice(int256)":"f7a30806","version()":"54fd4d50"},"id":0}